S01500006473695F61695F766973696F6E2E73726563AF
S3150200000020040022A1120002AD1000029D1200027D
S315020000109D1200029D1200029D1200029D12000214
S315020000200000000000000000000000009D12000217
S315020000309D120002000000009D1200029D120002A5
S31502000040910D0002D90100022D0200028102000276
S3150200005065030002C90300021D040002B50800027E
S31102000060490A00026D0B0002510C00025E
S3070200006C010188
S315020000700348044B834202D0034B03B1184770472F
S31502000080040000220400002200000000064B07497B
S31502000090C91A891048BF0131491003D0044B0BB16C
S315020000A001481847704700BF0400002204000022DE
S315020000B00000000010B5064C237843B9FFF7D8FFBD
S315020000C0044B13B10448AFF300800123237010BD23
S315020000D0500400220000000084A2000308B5054B6C
S315020000E01BB105490548AFF30080BDE80840FFF79C
S315020000F0CDBF00BF000000005404002284A200030A
S3150200010008B5EFF31081012383F31088134B1A68A5
S315020001101AB940241248027504751A6801321A6027
S3150200012081F310880F4C104DD4F83C314FF47A719C
S315020001302B4043F00403C4F83C31C82000F072FFA0
S31502000140D4F83C314FF47A712B4043F00503C820B2
S31502000150C4F83C3100F066FFE6E700BFD80400228F
S31502000160000D404000084040FE3FFEFF022800D03E
S31502000170704708B50449054800F058FABDE808403A
S31502000180012001F025B800BF281500026C040022E8
S3150200019008B5FFF7B5FF002008BD00BF30B54469BA
S315020001A005468C4685B0ACB194E80F000DF1100EF1
S315020001B00EE90F009CE80F0084E80F002046EB686A
S315020001C098476C6924B104AB13E90F0084E80F0069
S315020001D005B030BD0C46F1E710B5114B84B0D3F82B
S315020001E0D045C3F8D445EFF30383103B0D4A5BB207
S315020001F003F5C65152F8210020F4803042F821005E
S3150200020052F8212000220848694650F8230001943A
S3150200021003698DF800200393FFF7C0FF04B010BDF9
S315020002200060344000600040E004002210B5114B2B
S3150200023084B0D3F81046C3F81446EFF30383103B99
S315020002400D4A5BB203F5C65152F8210020F4803004
S3150200025042F8210052F8212001220848694650F846
S315020002602300019403698DF800200393FFF796FF9C
S3150200027004B010BD0060344000600040E00400227B
S3150200028030B5344B85B0D3F81044C3F81444EFF3B9
S315020002900383103B304A5BB203F5C65152F8210084
S315020002A020F4803042F8210052F821202B4A52F8DD
S315020002B0235014F0080347D00122294B1A70022357
S315020002C02A6928466946019403928DF80030FFF7A1
S315020002D065FF14F4400F35D01E4AD2F8003143F4BC
S315020002E08073C2F80031D2F8103143F00103C2F82C
S315020002F01031D2F8143103F01F031F2BF9D1D2F8B3
S315020003001031A96843F48033C2F81031C97A114A10
S315020003104902A1F58071D2F8143103F403438B42EA
S31502000320F9D1D2F810310B4923F48033C2F81031D7
S31502000330D2F8103123F00103C2F81031D1F814318A
S31502000340DB06FBD105B030BDA20744BF044A1370D9
S31502000350B5E700BF0060344000600040E0040022C0
S315020003607404002270B5144C84B0D4F80052C4F858
S315020003700452EFF30383103B104A5BB203F5C651F6
S3150200038052F8210020F4803042F8210052F8212050
S3150200039003220B490B4E51F8230069460369019566
S315020003A0CDE902638DF80020FFF7F8FE0123C4F8B9
S315020003B03C3204B070BD00BF0060344000600040B3
S315020003C0E00400224062344010B5114B84B0D3F8E9
S315020003D00043C3F80443EFF30383103B0D4A5BB2B9
S315020003E003F5C65152F8210020F4803042F821006C
S315020003F052F8212004220848694650F82300019445
S3150200040003698DF800200393FFF7C8FE04B010BD00
S315020004100060344000600040E004002210B5194B31
S3150200042084B0D3F82043C3F82443EFF30383103B8D
S31502000430154A5BB203F5C65152F8210020F480300A
S3150200044042F8210052F82120104A1148117850F83A
S315020004502300012911D01378032B03D1230144BFB2
S3150200046000231370052302696946019403928DF8ED
S315020004700030FFF793FE04B010BD6101EBD50223F5
S315020004801370EFE7006034400060004075040022FC
S31502000490E00400222DE9F84F0388DBB14FF0000A91
S315020004A080464FF00109DFF8D4B00024314D4FEAFF
S315020004B0CA07D8F8043035F8022BD919898891422F
S315020004C00AD00134032CF4D1B8F800300AF1010A3B
S315020004D05345EAD8BDE8F88FDB5909FA04F603F06A
S315020004E0B853B3F1807F244BF6B293F84C2C12D05A
S315020004F0324230D104F120021BF81230DB09E0D07F
S315020005001BF81230012123F08003C8200BF81230A9
S3150200051000F088FDD5E7324210D004F120021BF824
S315020005201230DB09CDD11BF81230012143F08003D2
S31502000530C8200BF8123000F075FDC2E7012000F06A
S315020005401DFE0D4B012093F84C2C324383F84C2CA4
S3150200055000F0E4FDE1E7012000F010FE064B012069
S3150200056093F84C2C22EA060283F84C2C00F0D6FDB6
S31502000570C0E700BFD816000200E00140002020407C
S31502000580F8B50646FFF786FFEFF31082012383F3E1
S315020005901088234F3B681BB9402022490B7508750A
S315020005A03B6801333B6082F31088338800211BB31A
S315020005B01D4D08E01B01134445F8234032880131E2
S315020005C08BB29A4218D9736853F8314003EBC102D1
S315020005D09288E0034FEA1223D2B2EBD502EB031064
S315020005E055F820E024F4803C2EF4803E45F820E0C5
S315020005F01B0145F820C0DEE7EFF31082012383F3E7
S3150200060010883B6813B13B68013B3B603B681BB9F2
S31502000610802004490B75087582F31088F8BD00BF67
S31502000620D8040022000D40400008404008B5034BA4
S3150200063003600846FFF7A4FF002008BD54524F503E
S3150200064030B5836B83B004460A466D46A3B193E880
S31502000650030085E80300E16B1A7119601846636BA3
S315020006609847A36B1BB195E8030083E803000023B8
S3150200067084F82B3003B030BD2B46ECE770B400246F
S31502000680402203691C7003691A70026913785B06BB
S31502000690FCD5C0231370036802695B6A804D1B791F
S315020006A04FF0000C43F0E0031374036802695B6ABF
S315020006B0B324DB7843F0E0035374036802695B6A90
S315020006C09B781B0103F0700343F0080393700368E1
S315020006D002695B6A1E78012E5E7814BF0423052325
S315020006E043EA4603DBB2D37003685B68AB4214BFCE
S315020006F07722F72203695A71036983F806C00369F0
S31502000700DC7191F911204B7B6245C0F2AA801B0174
S3150200071002F16044DBB204F5614484F80033614CB3
S31502000720614B44F8220002F5C65553F8256026F4BB
S31502000730803643F8256053F82530BFF35F8F0125D5
S3150200074053099B0002F01F0203F1604303F5614364
S3150200075005FA02F2C3F880211A6091F90F204B7B49
S31502000760002AC0F295801B0102F16045DBB205F555
S31502000770614585F800334C4B44F8220002F5C65514
S3150200078053F8256026F4803643F8256053F8253061
S31502000790BFF35F8F012553099B0002F01F0203F18D
S315020007A0604303F5614305FA02F2C3F880211A6039
S315020007B091F910204B7B002A63DB1B0102F1604595
S315020007C0DBB205F5614585F80033374B44F8220064
S315020007D002F5C65553F8256026F4803643F825609F
S315020007E053F82530BFF35F8F012553099B0002F0B2
S315020007F01F0203F1604303F5614305FA02F2C3F8EF
S3150200080080211A6091F90E204B7B002A31DB1B01F5
S3150200081002F16041DBB201F5614181F80033224BFE
S3150200082044F8220002F5C65153F8214024F48034DC
S3150200083043F8214053F82130BFF35F8F012153095A
S315020008409B0002F01F0203F1604303F5614301FAC4
S3150200085002F2C3F880211A609F2203691A7070BCE3
S315020008607047124C02F00F051B01DBB22C442376B3
S3150200087055E70E4902F00F051B01DBB229440B7640
S31502000880CDE70B4D1B0102F00F06DBB2AB559CE721
S31502000890074D1B0102F00F06DBB2AB556BE700BF3B
S315020008A040420F00E004002200600040FCEC00E041
S315020008B014ED00E010B582B0EFF30383103B5F4AFC
S315020008C05BB203F5C65352F8231021F4803142F885
S315020008D0231052F82330EFF30383594A103B5BB2DD
S315020008E052F8234094F82D305BBBA369022B22D920
S315020008F0E369012B0ED12269137943F010031371B8
S315020009002269137943F0080313712269137923F0DC
S315020009101003137123685B6ADB79002B3ED1012237
S315020009202369DB7CDBB28DF807309DF8073084F84B
S315020009302D2002B010BD2269137943F040031371D2
S31502000940D6E7E369002BF4D02268526AD279FAB963
S31502000950032B17D0022B26D0012B34D02269236A0F
S31502000960D17C6269D154D4E907320132013BC4E930
S315020009700732002BDDD121690A7963F386120A71E7
S3150200098002B010BD2269137943F040031371E5E703
S3150200099005212046FFF754FEE369D9E705212046E3
S315020009A0FFF74EFEBBE72269137943F0100313717A
S315020009B02269137943F0080313712269137923F02C
S315020009C010031371CAE794F82A2072B322681D48ED
S315020009D092F90F20510902F01F0203FA02F22031A6
S315020009E040F82120BFF34F8FBFF36F8F0420216998
S315020009F0CA7942F08002CA7121690A7942F010026C
S31502000A000A7121690A7922F008020A7121690A79B2
S31502000A1022F010020A712269507021694A7922F085
S31502000A2001024A7184F82C3098E708212269537A28
S31502000A3003F0F7035372236959708FE70060004091
S31502000A40E004002200E100E010B5EFF30383103B5F
S31502000A50434A5BB203F5C65352F8231021F48031A0
S31502000A6042F8231052F82330EFF303833D4A103B3A
S31502000A705BB252F8234094F82730002B40D194F809
S31502000A802930002B3BD123685B6ADB792BB194F8C2
S31502000A902B3013B9236A002B5CD1E3692169002B41
S31502000AA041D1CB79C02223F08003CB71216901E0C9
S31502000AB0013A02D0CB79DB09FAD12368284A93F9A5
S31502000AC0103003F5C65352F8231021F4803142F850
S31502000AD0231052F82330236893F91030002B09DBD8
S31502000AE001215A09204803F01F03603201FA03F379
S31502000AF040F822302269D37943F04003D37110BD06
S31502000B0094F82630032B1CD094F8242023699A7477
S31502000B1094F8282094F827300132013B84F82820E3
S31502000B2084F8273010BD236A6269D35C8B74D4E9DA
S31502000B3007320132013BC4E90732002BDFD12169BA
S31502000B40AFE794F82830022BDED194F83030002B30
S31502000B50DAD110BD05212046FFF772FD9DE700BFE1
S31502000B6000600040E004002200E100E038B5EFF347
S31502000B700383344A103B5BB252F8234023685B6A14
S31502000B80DB79002B4BD194F829301BB194F827302E
S31502000B90012B52D0E369E3B12169C023CA7922F05D
S31502000BA04002CA71216901E0013B02D0CA795206AC
S31502000BB0FAD4EFF30383103B234A5BB203F5C65321
S31502000BC052F8231021F4803142F8231052F82330D0
S31502000BD038BD94F82A203AB3012022681B4D92F9B7
S31502000BE00F20510902F01F02203100FA02F245F8E5
S31502000BF02120BFF34F8FBFF36F8F4FF0040C216993
S31502000C00CA7942F08002CA71226982F801C021695A
S31502000C104A7963F300024A7184F82C00BCE7052185
S31502000C202046FFF70DFDAEE708212269537A03F04D
S31502000C30F703537223695970AEE794F83030002BEC
S31502000C40AAD0A7E7E00400220060004000E100E02D
S31502000C5038B5EFF303834C4A103B5BB252F82300DC
S31502000C600269537A517ADC0601F0E00151725FFAA9
S31502000C7083FC03F003022CD503695978490648D44C
S31502000C800024012580F82B50DC710168FFF7F6FC81
S31502000C90B32290F82630816980F82830036980F8FB
S31502000CA02C400162C46180F82A402946DA71FFF7B6
S31502000CB0C7FCEFF30383103B344A5BB203F5C6531A
S31502000CC052F8231021F4803142F8231052F82330CF
S31502000CD038BD002A56D11CF0080F0ED090F82B30E2
S31502000CE0002B3ED1B32290F829100369C1F103010A
S31502000CF0C9B2DA71FFF7A4FCDBE790F82C200CF0FE
S31502000D0004032AB3002BD4D090F82B30002B37D112
S31502000D10E8E7002AB4D15A78C2F380115206DAD52E
S31502000D20082280F82B105A70036801695A6A94796E
S31502000D301378527943EAC41343EA021343F00203D7
S31502000D40DBB2CB700269537943F001035371B0E70A
S31502000D50002BAED003685B6ADB79002BA9D0042195
S31502000D60C8E70023B32190F826508469026980F807
S31502000D702C3080F828500462C36180F82A30D17181
S31502000D800121B7E703697BE7E00400220060004027
S31502000D9030B51A4B83B01A68194901321A601B68BA
S31502000DA0896823B900240025164BC3E900450122B0
S31502000DB0154B48681A705A7038B103228B68684618
S31502000DC001934B688DF800209847104AD2F84834B0
S31502000DD043F00103C2F84834EFF30383103B0C4A95
S31502000DE05BB203F5C65352F8231021F4803142F860
S31502000DF0231052F8233003B030BD00BF780400221E
S31502000E0088040022800400220000002200303440C0
S31502000E10006000401E4A92F8263092F82420DBB287
S31502000E2002F00F02A2F1080103292BD8DFE801F034
S31502000E3020160C021749184A51F82330A2FB032345
S31502000E401B09164A136070471249134A51F8233098
S31502000E50A2FB0323114ADB08136070470D490E4AB1
S31502000E6051F82330A2FB03230C4A9B0813607047F8
S31502000E700849094A51F82330A2FB0323074A5B08B3
S31502000E8013607047034951F82330D340D9E700BFB6
S31502000E9000E0014020040022ABAAAAAA18050022FB
S31502000EA04AF203500122F8B549494A4BA1F8FA031E
S31502000EB09A809C88A4B2002CFBD101259FED406B41
S31502000EC09FED417B444A45494548C2E90711C2E9BB
S31502000ED004401D8082ED007FFFF79CFF0A21092353
S31502000EE03B4A82F8501A82F8A23082F8005C82F8F5
S31502000EF0324092F83C301907FBD544F6017040F2B5
S31502000F0021210023324C1085A2F84C1082F82A3097
S31502000F1094F83C309B06FBD50422012505262D4B71
S31502000F20304F1A77276284F8245084F82660FFF738
S31502000F3071FF2946962000F075F8002384F82430C4
S31502000F402762FFF767FF2946962000F06BF884F8C0
S31502000F502660FFF75FFF4AF20152234B1A80BFF366
S31502000F605F8F1D72BFF35F8F4FF42541198084F89E
S31502000F70305084F8525084F8535094F85F30144A33
S31502000F8043F0400384F85F3092F85F30DB09FBD010
S31502000F90C523022082F85E0082F85F3092F85F3045
S31502000FA00B4903F0BF0382F85F3091F85F30DB092B
S31502000FB0FBD14FF42543A1F8FA33F8BDAFF3008015
S31502000FC0006CDC0200127A000080000000366E011E
S31502000FD000E0014000C101402004002200D01213AB
S31502000FE000389C1C322312310020004010B5002428
S31502000FF0064B012083F8284000F0C0F8044B01207C
S3150200100083F84C4CBDE8104000F088B80020204020
S3150200101000E00140704700BFA0F101000028FBD1AB
S31502001020704700BF1E4B1F4A1B6800FB01F193422B
S3150200103013D302F1854202F5071203F5742302F671
S31502001040834203F23F23A2FB03239B0CA3FB013142
S315020010504FF0FF30E1B1FFF7DFBF4FF47A7210B401
S31502001060114C4FF0FF30B4FBF3F3A1FB02C434B9C9
S31502001070BCFBF3F080B15DF8044BFFF7CDBFB1FBCB
S31502001080F3F1A1FB0212002AF5D1084620B1F2E7DC
S315020010901846002BDFD170475DF8044B704700BF3E
S315020010A01805002200127A0000CA9A3B70B5002485
S315020010B00D4B0E4EB3F80021B3F82051ADB21540D8
S315020010C025FA04F3DB0704D556F82430E0B203B15F
S315020010D098470134102CF3D1034AA2F81051B2F802
S315020010E020311D42FBD170BD00C000409804002291
S315020010F000220B2310B40748074C30F8021B02F5F6
S31502001100C65C013209B144F82C10013BF5D15DF8F9
S31502001110044B7047C016000200600040EFF31081D6
S31502001120012383F31088124B33F8102092B22AB1AE
S3150200113033F81020013A92B223F8102033F8103017
S315020011409BB293B910B40B4A0B4CB2F8FA3334F88B
S3150200115010009BB243F4254323EA0003A2F8FA33B4
S3150200116081F310885DF8044B704781F3108870474D
S315020011700C05002200E001406018000230B4EFF3D3
S315020011801081012383F310880E4A32F810309BB285
S315020011906BB90D4C0D4DB4F8FA3335F810C09BB24D
S315020011A043EA0C0343F425439BB2A4F8FA3332F81C
S315020011B0103001339BB222F8103081F3108830BC14
S315020011C0704700BF0C05002200E0014060180002D3
S315020011D0F8B506462E4C94F8503C03F0FF05002B5A
S315020011E0F9D18723A4F8243C84F8005C002E3CD174
S315020011F001220023264981F8022C81F8013C91F84C
S31502001200503C002BFBD1BEB14FF40C73204AA1F81F
S31502001210483C92F8503CD907FBD4012347F2A83147
S315020012201C48C2F8440C82F8403CA2F8141C82F80E
S31502001230163C82F8003CF8BD012347F2A830154C53
S31502001240134AC1F8444C81F8403CA1F8140C81F8C9
S31502001250163C92F8003CDB07FBD492F8503C002B7C
S31502001260F7D1012382F8103CF8BD01272846FFF783
S3150200127085FF094B284683F85370FFF74FFF044A50
S3150200128084F8207C92F8503C1807FBD4B0E700BFE4
S31502001290003000400325050000E0014000BE704713
S315020012A008B500F035F8FEF773FFFEE7F8B5174FFD
S315020012B005463E68A6B17C6806EB460604EB860642
S315020012C002E00C34B4420BD0637AAB42F9D1D4E9D2
S315020012D000020021121A0C3400F010F9B442F3D1C4
S315020012E0BE6896B1FC6804EB061602E01034A6420C
S315020012F00BD0637BAB42F9D1D4E90002A168121A82
S31502001300103400F003F9A642F3D1F8BDE01600024C
S31502001310704B714A70B55A61BFF34F8FBFF36F8F2F
S315020013201B6803F47002B2F5801F00F0A78013F465
S31502001330600F00F08F80694A136843F0040313605C
S31502001340BFF34F8FBFF36F8F4FF47002644B614C44
S315020013500020C4F88820A360FEF708FFFFF7A0FD6F
S315020013600120FEF703FF5F4B83F30A885B4B1A6883
S31502001370920704D5A268B2F1007F00F083800020B4
S31502001380FFF794FFFFF746FDFFF730FE0320FFF756
S31502001390F5FE00234FF00C0E1C464EF001E05249BA
S315020013A003F10C0221F8224001330FF007C8032093
S315020013B0FFF7B4FE0320FFF7E1FE4C4B03205C600F
S315020013C09C60DC601C614A4CFFF7A8FED4F8D83357
S315020013D03BB3D4F8D8330220FEF7C8FE0120FFF74C
S315020013E065FFBFF34F8FBFF36F8F0024394BC3F8EE
S315020013F05042BFF34F8FBFF36F8F3E4B3E4D5B1B89
S31502001400A3424FEAA30605DD55F8043B013498478B
S31502001410A642F9DCFFF76CFEBDE870400020FFF73C
S31502001420F9BD94F81031002BD5D00120FFF7A6FEA6
S3150200143094F8103103F0C003802BF9D100232C4A13
S3150200144084F8103192F810313F2BFBD80120FFF7B8
S3150200145065FEC0E7214A136843F004031360BFF335
S315020014604F8FBFF36F8F4FF0E022936843F48033C0
S315020014709360BFF34F8FBFF36F8F65E719077FF452
S315020014805AAF54E7012100261A695869C2F3C30309
S31502001490093301FA03F3002400253246DB0843F040
S315020014A007C800BFAFF30080E2E802450FF005C0AF
S315020014B0C0F3C303093301FA03F34FF00052DB080A
S315020014C043F007C0AFF30080E2E802450FF005C023
S315020014D055E700BF00ED00E001020E0000E001E06A
S315020014E00000000220000022000D40400040204083
S315020014F000E00140C8180002C41800020244034674
S31502001500934200D1704703F8011BF9E70A44431ED0
S31502001510914200D1704710B511F8014B914203F880
S31502001520014FF9D110BD0000310000003415000250
S3150200153000000000000C010B0C010000000C010B66
S315020015400D010000000C010B0E010000000C010B46
S315020015500F01000004000000000200000000011F4D
S31502001560060200000000010008020000000001005F
S3150200157009020000000001000A020000000001004A
S315020015800B020000000C010B00030000000C010B13
S3150200159001030000000C010B02030000000C010B0A
S315020015A003030000000C010B04030000000C010BF6
S315020015B005030000000C010B06030000000C010BE2
S315020015C007030000000C010B08030000000C010BCE
S315020015D009030000000C010B0A030000000C010BBA
S315020015E00B030000000C010B0C03000000040107B2
S315020015F009040000000401070A04000004000000B8
S315020016000F040000000C010B01060000000C010B88
S3150200161002060000000C010B03060000000C010B81
S3150200162004060000000C010B05060000000C010B6D
S3150200163006060000000C010B07060000000C010B59
S3150200164009060000000C010B0A060000000C010B43
S315020016500B060000000C010B0C060000000C010B2F
S315020016600D060000000C010B0E060000000C010B1B
S315020016700F0600000500000007070000000C010B22
S3150200168005090000000C010B06090000000C010B05
S3150200169008090000000C010B09090000000C010BEF
S315020016A0000A0000000C010B080A00000008010BEA
S315020016B0090A0000000C010B0A0A000000000000E3
S315020016C0CD01D301D401D501D601D701D8015C00E1
S315020016D05D005E005F0000000204030404040000D3
S315020016E008000000001800020F0000001017000298
S315020016F003000000F81600020000006800000068FF
S31502001700000000800000008020000022200000224D
S315020017100000006800000068000000900001090D4A
S315020017200000006800000068000000270001020DAA
S3150200173000000068000000686C0000020001010D54
S3150200174000000080000000800000009000010908EF
S31502001750000000800000008000000027000102084F
S3150200176000000080000000806C00000200010108F9
S3150200177000000000000000000000009001010905C1
S315020017800000000000000000000000270100020522
S3150200179000000000000000006C00000201000105CC
S315020017A00000002000000020000000900101090452
S315020017B000000020000000200000002701000204B3
S315020017C000000020000000206C000002010001045D
S315020017D00000002200000022000000900001090320
S315020017E00000002200000022000000270000020381
S315020017F000000022020000226C0000020000010329
S3150200180000000068000000680001000D000000688A
S31502001810000000680001000D00000080000000804A
S31502001820000100080000008000000080000100089E
S31502001830000000000000000001000005000000207A
S315020018400000002001000004020000222000002205
S3150200185000000003500400221C05002200000003C1
S315020018600100020008001000200000004275696CA9
S315020018707420776974682052656E657361732041BE
S315020018806476616E63656420466C657869626C6530
S3150200189020536F667477617265205061636B61676E
S315020018A0652076657273696F6E20362E312E300092
S311020018B0362E312E30000000000001062A
S309020018BCF8B500BFB4
S309020018C0F8B500BFB0
S309020018C4DD00000239
S309020018C8B50000025D
S3090300A100FFFFFFFF56
S3090300A104FFFFFFFF52
S3090300A200FFFFFFFD57
S3090300A28000000000D1
S705020012A145
