:020000040200F8
:1000000080040022952000028D1E00029120000233
:100010009120000291200002912000029120000214
:10002000000000000000000000000000912000021D
:1000300091200002000000009120000291200002A7
:100040006D1A0002150C0002690C0002BD0C0002C2
:10005000A10D0002050E0002590E000291150002CA
:1000600025170002491800022D190002790A000222
:0C007000E9090002090B0002550B000218
:10007C000100000010400000010100000000000021
:10008C0003000000FC0500221C0000220000000000
:10009C00FC05002264060022CC06002200000000B1
:1000AC000000000000000000000000000000000044
:1000BC000000000000000000000000000000000034
:1000CC000000000000000000000000000000000024
:0800DC0000000000000000001C
:1000E8000348044B834202D0034B03B118477047BF
:1000F800680000226800002200000000064B074943
:10010800C91A891048BF0131491003D0044B0BB1FB
:1001180001481847704700BF6800002268000022A5
:100128000000000010B5064C237843B9FFF7D8FF4C
:10013800044B13B10448AFF300800123237010BDB2
:10014800B00400220000000084A2000308B5054B9B
:100158001BB105490548AFF30080BDE80840FFF72B
:10016800CDBF00BF00000000B404002284A2000339
:1001780010B51446084600F02DFA204610BD00BF01
:1001880038B500F01FFA2A492A4801F089F9EFF337
:100198001081012383F31088274B1A681AB9402469
:1001A8002648027504751A6801321A6081F31088AE
:1001B800234C244DD4F8D8314FF47A712B4043F0B6
:1001C8000503C4F8D831052001F018FED4F8D83159
:1001D8004FF47A712B4043F00403C4F8D83105205A
:1001E80001F00CFED4F8D8314FF47A712B4043F06B
:1001F8000503C4F8D831642001F000FED4F820319A
:100208002B4043F00503C4F82031D4F830312B409B
:1002180043F00403C4F8303100F092F80A4C204649
:1002280002F07CF94FF47A71C82001F0E7FDF6E797
:10023800C42C0002D8040022A8050022000D40406A
:1002480000084040FE3FFEFF2C2C0002022800D090
:10025800704708B50449054800F002FFBDE80840AA
:10026800012001F0ABBE00BF282D0002D0040022FF
:1002780030B5054613460C4683B001222946274867
:100288008DF807408DF8063000F09CFFB0F5967F9A
:100298003FD0012321481A460DF1070100F0B0FFB5
:1002A80000224FF6FF731E4C2270013B05D02278C6
:1002B800002AFAD0237800232370B0F5967F20D047
:1002C8000023012215480DF1060100F099FF0546AB
:1002D80088B94FF6FF732070013B08D02278002AB6
:1002E800FAD02378012B4FF00003237006D10D4874
:1002F80002F014F908E00C4802F010F9284603B09F
:1003080030BD094802F00AF94FF49675284603B043
:1003180030BD064802F002F9F6E700BFD804002213
:1003280000000022942C00026C2C00023C2C0002DD
:1003380010B10279014B1A70704700BF000000220B
:1003480008B5FF2208214820FFF792FFFF22092164
:100358004820FFF78DFFFF220A214820FFF788FF7A
:10036800FF220B214820FFF783FFFF220C214820A2
:10037800FFF77EFFA12231214820FFF779FFA12254
:1003880032214820FFF774FF032233214820FFF76A
:100398006FFF002237214820FFF76AFF2222382109
:1003A8004820FFF765FF822260214820FFF760FFA1
:1003B800452239214820FFF75BFF00223B214820D6
:1003C800FFF756FF312244214820FFF751FF44220E
:1003D80055214820FFF74CFF012257214820FFF7FD
:1003E80047FF02225A214820FFF742FF202210210E
:1003F8004920FFF73DFF042211214920FFF738FF6C
:10040800042212214920FFF733FF02221321492039
:10041800FFF72EFF002214214920FFF729FF0022B1
:1004280015214920FFF724FF03221A214920FFF74D
:100438001FFF03221B214920FFF71AFF3E22182124
:100448004920FFF715FF062219214920FFF710FF61
:10045800D0221C214920FFF70BFF02221D21492031
:10046800FFF706FF67221E214920FFF701FF0C2234
:100478002F214920FFF7FCFE5A2234214920FFF79B
:10048800F7FE032235214920FFF7F2FE0D2236211F
:100498004920FFF7EDFE022237214920FFF7E8FE49
:1004A8001E2238214920FFF7E3FE00223921492086
:1004B800FFF7DEFE09223A214920FFF7D9FE002284
:1004C8003B214920FFF7D4FE3C2249201146FFF783
:1004D800CFFE00223D214920FFF7CAFE10223E210F
:1004E8004920FFF7C5FE00223F214920FFF7C0FE43
:1004F800122272214920FFF7BBFE7A22732149207C
:10050800FFF7B6FE002274214920FFF7B1FE24222E
:1005180075214920FFF7ACFED02276214920FFF74C
:10052800A7FEE02277214920FFF7A2FE12227821B8
:100538004920FFF79DFE5A2279214920FFF798FEAE
:100548000D227A214920FFF793FE23227B2149209F
:10055800FFF78EFE3E227C214920FFF789FE062206
:100568007D214920FFF784FE802270214920FFF772
:100578007FFE512271214920FFF77AFE66224E2123
:100588004920FFF775FE66224F214920FFF770FECC
:10059800262250214920FFF76BFEBDE80840802243
:1005A80051214920FFF764BE0020704700207047A2
:1005B800013801288CBF00200120704700207047B7
:1005C800002070470149024800F0C8B8F42C000226
:1005D8001805002238B5054602F0E4F80246002363
:1005E8000B4C29460B48D2B2237000F03DF848B9AD
:1005F800094B04E0013B09D02278782A03D02278FD
:10060800022AF7D138BD4FF4967038BD142038BD92
:10061800CC04002218050022FCFF03000C490379D2
:100628000C4A0B701178042904BF00211170042BA7
:1006380000D0704783680D2B04D013780133DBB2E8
:100648001370704700200121034B10701970704718
:10065800CC040022CE040022CD04002208B5FFF706
:100668008FFD002008BD00BF844610B4006A83686F
:1006780023F440138360DCF82040A36C5800FCD5B9
:10068800A36823F01003A360DCF82040237FC3F3A2
:100698000010DB06FAD4CCE90312A36843F0101368
:1006A800A3605DF8044B704730B40124164D53091C
:1006B80002F01F0C203304FA0CF445F82340BFF372
:1006C8004F8FBFF36F8F114B02F5C65C53F82C4068
:1006D80024F4803443F82C4053F82C300901002AC4
:1006E800C9B207DB0A4B154485F8001343F822000A
:1006F80030BC7047074B02F00F0423441976044BB3
:1007080043F8220030BC704700E100E00060004080
:10071800B0050022FCEC00E0F0B5846A85B005461F
:100728000F4694466E46B4B194E80F0086E80F0071
:10073800EB6920461B78A760236084F804C0EB6A45
:10074800E3606B6A9847AC6A1CB196E80F0084E8CE
:100758000F0005B0F0BD3446EAE700BF00222DE9DE
:10076800F04101270B78027003F5800303F5565317
:100778001B020362C1614B690D4643628B690446E3
:10078800C0E90A238378CE6967F3010383704B7845
:10079800934214BF3A460222837862F301038370BE
:1007A80091F90B20897AFFF77FFF95F905202979C0
:1007B800FFF77AFF95F90720A979FFF775FF95F9F3
:1007C8000920297AFFF770FFEFF3108887F3108864
:1007D8004FF000412A787A4BD1405A6822EA010248
:1007E8005A605B689620394601F008FB88F3108848
:1007F8004FF48062236A9A606B78E978EA691B0291
:10080800890301F4804103F440730B431178506865
:10081800090601F040710B435178C90389B20B43B3
:10082800517B490501F400110B43216A43F48053BD
:100838004B611378991EB94240F2BB800368216A64
:100848000B61117BAB7801F0030141F0300133B14A
:10085800022B14BF4FF440734FF4807319430020E8
:1008680093781B0703F080530B43216ACB60216AFE
:100878000123886140F21F21287883400B4202D06F
:10088800236A504959620021937BD07B127C00F087
:100898001F0003F0010343EA002302F01F02206A4D
:1008A80043EA02430363C4E90311C4E90511226A58
:1008B8007589454825819066E269444B92F905207F
:1008C80002F5C65053F8205061F3104543F8205004
:1008D80053F82000BFF35F8F012002F01F05520973
:1008E800920002F1604202F5614200FA05F5C2F891
:1008F80080511560E26992F90B2002F5C65553F84C
:10090800256061F3104643F8256053F82550BFF37E
:100918005F8F02F01F055209920002F1604200FA4F
:1009280005F502F56142C2F880511560E26992F955
:10093800072002F5C65553F8256061F3104643F8C1
:10094800256053F82550BFF35F8F02F01F05520949
:10095800920002F1604200FA05F502F56142C2F820
:1009680080511560E26992F9092002F5C65553F8DD
:10097800256061F3104643F8256053F82530BFF32E
:100988005F8F53099B0002F01F0203F16043904000
:1009980003F56143C3F8800118600D4A236A9A6021
:1009A800226A137FDB07FCD50A4B00206360BDE891
:1009B800F0810949022B094B18BF0B463FE700BFDE
:1009C8000030204000001F1F1000079D00600040FD
:1009D800110401004249435304FF00FF24FF00FFB4
:1009E800EFF30383103B204A5BB203F5C65152F87C
:1009F800210020F4803042F8210052F821201B4ABF
:100A080052F82300C3691B6983B1036903B17047B6
:100A1800026A0021936823F4801343F4001393605F
:100A2800436AC160C3B18022FFF776BE0369026AD8
:100A3800002BEED08378C16803F00303022B0CD09F
:100A48000B7813718278D0E9031302F003029B1A22
:100A58001144C0E90313D9E770470B8823F4DC433A
:100A68009BB25360EEE700BF00600040B005002273
:100A780010B582B0EFF30383103B1F4A5BB203F556
:100A8800C65152F8210020F4803042F8210052F873
:100A980021201A4A52F82340A27802F00303022BBD
:100AA800236A0CBF19681978A3690CBFC1F3080140
:100AB800C9B2019143B9636AB3B10422204602B0B6
:100AC800BDE81040FFF728BE02F0030201A96069E3
:100AD80001F05BFED4E90521A37803F003031A446F
:100AE800C91AC4E9052109B102B010BD636A002B17
:100AF800FAD00122E2E700BF00600040B005002202
:100B080010B5EFF303830F4A103B5CB252F8240090
:100B1800026A936823F4401323F010039360436A36
:100B28001BB102220021FFF7F7FD074A04F5C6535F
:100B380052F8231021F4803142F8231052F8233060
:100B480010BD00BFB00500220060004038B5EFF3CB
:100B580003831D4A103B5CB252F824008378056A6F
:100B680003F00303022B0CBF29682978AA6C08BF7D
:100B7800C1F30801C2F30073C2F3006C4FEA031318
:100B880043EA4C13C2F3C06243EAC20C18BFC9B2AD
:100B9800DB06624604D5AB6C1B0458BF4CF0400220
:100BA800AB6E43F0C853AB66436A0BB1FFF7B4FDB5
:100BB800064A04F5C65352F8231021F4803142F84E
:100BC800231052F8233038BDB005002200600040E1
:100BD80030B5446905468C4685B0ACB194E80F0041
:100BE8000DF1100E0EE90F009CE80F0084E80F00CD
:100BF8002046EB6898476C6924B104AB13E90F00F1
:100C080084E80F0005B030BD0C46F1E710B5114B74
:100C180084B0D3F8D045C3F8D445EFF30383103B31
:100C28000D4A5BB203F5C65152F8210020F480301A
:100C380042F8210052F8212000220848694650F85D
:100C48002300019403698DF800200393FFF7C0FF88
:100C580004B010BD0060344000600040B0050022C0
:100C680010B5114B84B0D3F81046C3F81446EFF30F
:100C78000383103B0D4A5BB203F5C65152F82100BD
:100C880020F4803042F8210052F82120012208483F
:100C9800694650F82300019403698DF800200393F6
:100CA800FFF796FF04B010BD0060344000600040BC
:100CB800B005002230B5344B85B0D3F81044C3F8E2
:100CC8001444EFF30383103B304A5BB203F5C6517B
:100CD80052F8210020F4803042F8210052F82120F7
:100CE8002B4A52F8235014F0080347D00122294B0D
:100CF8001A7002232A6928466946019403928DF8DE
:100D08000030FFF765FF14F4400F35D01E4AD2F8C3
:100D1800003143F48073C2F80031D2F8103143F047
:100D28000103C2F81031D2F8143103F01F031F2B4E
:100D3800F9D1D2F81031A96843F48033C2F81031E0
:100D4800C97A114A4902A1F58071D2F8143103F425
:100D580003438B42F9D1D2F810310B4923F4803385
:100D6800C2F81031D2F8103123F00103C2F8103163
:100D7800D1F81431DB06FBD105B030BDA20744BF62
:100D8800044A1370B5E700BF0060344000600040BB
:100D9800B00500224805002270B5144C84B0D4F880
:100DA8000052C4F80452EFF30383103B104A5BB2BD
:100DB80003F5C65152F8210020F4803042F8210092
:100DC80052F8212003220B490B4E51F823006946A3
:100DD80003690195CDE902638DF80020FFF7F8FE5D
:100DE8000123C4F83C3204B070BD00BF0060344039
:100DF80000600040B00500224062344010B5114B3D
:100E080084B0D3F80043C3F80443EFF30383103BE3
:100E18000D4A5BB203F5C65152F8210020F4803028
:100E280042F8210052F8212004220848694650F867
:100E38002300019403698DF800200393FFF7C8FE8F
:100E480004B010BD0060344000600040B0050022CE
:100E580010B5194B84B0D3F82043C3F82443EFF3FB
:100E68000383103B154A5BB203F5C65152F82100C3
:100E780020F4803042F8210052F82120104A11480D
:100E8800117850F82300012911D01378032B03D1CE
:100E9800230144BF002313700523026969460194A6
:100EA80003928DF80030FFF793FE04B010BD610186
:100EB800EBD502231370EFE7006034400060004078
:100EC80049050022B00500222DE9F84F0388DBB15F
:100ED8004FF0000A80464FF00109DFF8D4B0002433
:100EE800314D4FEACA07D8F8043035F8022BD91922
:100EF800898891420AD00134032CF4D1B8F8003023
:100F08000AF1010A5345EAD8BDE8F88FDB5909FA16
:100F180004F603F0B853B3F1807F244BF6B293F88C
:100F28004C2C12D0324230D104F120021BF812307E
:100F3800DB09E0D01BF81230012123F08003C82020
:100F48000BF8123000F05AFFD5E7324210D004F106
:100F580020021BF81230DB09CDD11BF81230012119
:100F680043F08003C8200BF8123000F047FFC2E7B7
:100F7800012000F0EFFF0D4B012093F84C2C324379
:100F880083F84C2C00F0B6FFE1E7012000F0E2FF07
:100F9800064B012093F84C2C22EA060283F84C2CCD
:100FA80000F0A8FFC0E700BF182F000200E00140D2
:100FB80000202040F8B50646FFF786FFEFF31082C1
:100FC800012383F31088234F3B681BB94020224933
:100FD8000B7508753B6801333B6082F310883388D2
:100FE80000211BB31D4D08E01B01134445F82340A5
:100FF800328801318BB29A4218D9736853F831405C
:1010080003EBC1029288E0034FEA1223D2B2EBD578
:1010180002EB031055F820E024F4803C2EF4803EC7
:1010280045F820E01B0145F820C0DEE7EFF3108209
:10103800012383F310883B6813B13B68013B3B6095
:101048003B681BB9802004490B75087582F310882A
:10105800F8BD00BFA8050022000D40400008404030
:1010680008B5034B03600846FFF7A4FF002008BD3E
:1010780054524F5030B5836B83B004460A466D46D0
:10108800A3B193E8030085E80300E16B1A711960C6
:101098001846636B9847A36B1BB195E8030083E878
:1010A8000300002384F82B3003B030BD2B46ECE757
:1010B80030B5424B83B01B6A01690193019B03F071
:1010C8000F230193019A019D0B7C90F82C409CB949
:1010D800C2F30322DBB2A2EB156293409B0804D152
:1010E800082003B030BD013BFAD04A78C2F3C014DF
:1010F800D209F8D1CC710169002390F8264085699E
:10110800026880F82B30C56180F82D3080F82740C0
:1011180080F82E3080F8283080F82F30036280F86D
:101128003030546A227894F801E0012A14BF4FF055
:10113800040C4FF0050C6279120142EA4E0294F851
:1011480006E042EACE124CEA0202D2B2CA70016943
:101158000A7942F010020A7101690A7963F3C3023D
:101168000A7101690A7963F304120A710269E17963
:10117800137961F3C71313710269537943F00103BB
:101188005371036893F90F30002B07DB012203F03A
:101198001F040B495B09A24041F82320BF220369C1
:1011A800DA7190F82C302BB1002380F82C30002015
:1011B80003B030BD022203695A70F8E700E001402D
:1011C80000E100E0B8B1034610B40C48DC68844282
:1011D8000DD1D86938B993F82A4024B959601A72E0
:1011E8005DF8044B704708205DF8044B70470720F2
:1011F8005DF8044B70470120704700BF43494952CE
:1012080068B380F82A3051B310B4164BC4689C42B6
:1012180011D1436B5BB1037AC0E90512012B0ED0E3
:10122800002380F829305DF8044BFFF741BF012007
:101238005DF8044B704707205DF8044B704780F851
:10124800263000210023426880F82510520080F8DB
:10125800242080F829305DF8044BFFF729BF0120CE
:10126800704700BF4349495270B4002440220369C3
:101278001C7003691A70026913785B06FCD5C023D9
:101288001370036802695B6A804D1B794FF0000C8C
:1012980043F0E0031374036802695B6AB324DB78E4
:1012A80043F0E0035374036802695B6A9B781B018F
:1012B80003F0700343F008039370036802695B6AE4
:1012C8001E78012E5E7814BF0423052343EA4603E3
:1012D800DBB2D37003685B68AB4214BF7722F72296
:1012E80003695A71036983F806C00369DC7191F9CF
:1012F80011204B7B6245C0F2AA801B0102F16044B9
:10130800DBB204F5614484F80033614C614B44F866
:10131800220002F5C65553F8256026F4803643F8B6
:10132800256053F82530BFF35F8F012553099B00D3
:1013380002F01F0203F1604303F5614305FA02F26C
:10134800C3F880211A6091F90F204B7B002AC0F264
:1013580095801B0102F16045DBB205F5614585F812
:1013680000334C4B44F8220002F5C65553F825606B
:1013780026F4803643F8256053F82530BFF35F8F95
:10138800012553099B0002F01F0203F1604303F596
:10139800614305FA02F2C3F880211A6091F910201E
:1013A8004B7B002A63DB1B0102F16045DBB205F5CC
:1013B800614585F80033374B44F8220002F5C655DD
:1013C80053F8256026F4803643F8256053F8253015
:1013D800BFF35F8F012553099B0002F01F0203F141
:1013E800604303F5614305FA02F2C3F880211A60ED
:1013F80091F90E204B7B002A31DB1B0102F1604181
:10140800DBB201F5614181F80033224B44F8220038
:1014180002F5C65153F8214024F4803443F82140A2
:1014280053F82130BFF35F8F012153099B0002F06D
:101438001F0203F1604303F5614301FA02F2C3F8A6
:1014480080211A609F2203691A7070BC7047124C81
:1014580002F00F051B01DBB22C44237655E70E4939
:1014680002F00F051B01DBB229440B76CDE70B4DCB
:101478001B0102F00F06DBB2AB559CE7074D1B01C1
:1014880002F00F06DBB2AB556BE700BF40420F001E
:10149800B005002200600040FCEC00E014ED00E024
:1014A800F8B5002860D00C4600295DD04B6A002BA7
:1014B8005AD091F90E30002B56DB91F90F30002BE2
:1014C80052DB91F91030002B4EDB91F91130002BD3
:1014D8004ADB294BC26805469A424BD001230A7859
:1014E8009340980743D0254B4968994204D101237A
:1014F80003FA02F1890738D00026214B2C601344E7
:101508001B022B61A3686B60237B2B72E3696B63FF
:10151800236AC5E90E63EFF31087012181F3108870
:10152800184A23785068C3F1090301FA03F320EA43
:10153800030353605368962000F060FC87F310881B
:1015480021462846FFF790FE0B4A85F82960334666
:1015580085F82A60C5E9066685F82B606E612E62FB
:1015680085F82C60EA6000E001231846F8BD40F2D7
:101578007A53FAE70E23F8E74349495240420F00ED
:10158800E02540000030204010B582B0EFF303831F
:10159800103B5F4A5BB203F5C65352F8231021F49F
:1015A800803142F8231052F82330EFF30383594A6D
:1015B800103B5BB252F8234094F82D305BBBA36913
:1015C800022B22D9E369012B0ED12269137943F04A
:1015D800100313712269137943F008031371226908
:1015E800137923F01003137123685B6ADB79002BEE
:1015F8003ED101222369DB7CDBB28DF807309DF8F0
:10160800073084F82D2002B010BD2269137943F009
:1016180040031371D6E7E369002BF4D02268526ABD
:10162800D279FAB9032B17D0022B26D0012B34D04C
:101638002269236AD17C6269D154D4E90732013224
:10164800013BC4E90732002BDDD121690A7963F334
:1016580086120A7102B010BD2269137943F0400363
:101668001371E5E705212046FFF704FDE369D9E793
:1016780005212046FFF7FEFCBBE72269137943F0FA
:10168800100313712269137943F008031371226957
:10169800137923F010031371CAE794F82A2072B360
:1016A80022681D4892F90F20510902F01F0203FA1F
:1016B80002F2203140F82120BFF34F8FBFF36F8F24
:1016C80004202169CA7942F08002CA7121690A7925
:1016D80042F010020A7121690A7922F008020A719F
:1016E80021690A7922F010020A7122695070216971
:1016F8004A7922F001024A7184F82C3098E70821CF
:101708002269537A03F0F7035372236959708FE7FC
:1017180000600040B005002200E100E010B5EFF3E2
:101728000383103B434A5BB203F5C65352F82310B8
:1017380021F4803142F8231052F82330EFF3038369
:101748003D4A103B5BB252F8234094F82730002BF7
:1017580040D194F82930002B3BD123685B6ADB79B0
:101768002BB194F82B3013B9236A002B5CD1E369B1
:101778002169002B41D1CB79C02223F08003CB71A2
:10178800216901E0013A02D0CB79DB09FAD123685B
:10179800284A93F9103003F5C65352F8231021F460
:1017A800803142F8231052F82330236893F910301F
:1017B800002B09DB01215A09204803F01F0360327E
:1017C80001FA03F340F822302269D37943F0400349
:1017D800D37110BD94F82630032B1CD094F8242024
:1017E80023699A7494F8282094F827300132013B31
:1017F80084F8282084F8273010BD236A6269D35CF6
:101808008B74D4E907320132013BC4E90732002B5B
:10181800DFD12169AFE794F82830022BDED194F8A4
:101828003030002BDAD110BD05212046FFF722FC0D
:101838009DE700BF00600040B005002200E100E025
:1018480038B5EFF30383344A103B5BB252F82340B8
:1018580023685B6ADB79002B4BD194F829301BB1E4
:1018680094F82730012B52D0E369E3B12169C023F2
:10187800CA7922F04002CA71216901E0013B02D015
:10188800CA795206FAD4EFF30383103B234A5BB2BA
:1018980003F5C65352F8231021F4803142F823107F
:1018A80052F8233038BD94F82A203AB30120226830
:1018B8001B4D92F90F20510902F01F02203100FA46
:1018C80002F245F82120BFF34F8FBFF36F8F4FF01F
:1018D800040C2169CA7942F08002CA71226982F82F
:1018E80001C021694A7963F300024A7184F82C0027
:1018F800BCE705212046FFF7BDFBAEE708212269BA
:10190800537A03F0F703537223695970AEE794F8DA
:101918003030002BAAD0A7E7B005002200600040B5
:1019280000E100E038B5EFF303834C4A103B5BB2AB
:1019380052F823000269537A517ADC0601F0E0017B
:1019480051725FFA83FC03F003022CD503695978BE
:10195800490648D40024012580F82B50DC71016821
:10196800FFF782FCB32290F82630816980F828308E
:10197800036980F82C400162C46180F82A40294636
:10198800DA71FFF777FBEFF30383103B344A5BB25E
:1019980003F5C65352F8231021F4803142F823107E
:1019A80052F8233038BD002A56D11CF0080F0ED04B
:1019B80090F82B30002B3ED1B32290F82910036900
:1019C800C1F10301C9B2DA71FFF754FBDBE790F804
:1019D8002C200CF004032AB3002BD4D090F82B3021
:1019E800002B37D1E8E7002AB4D15A78C2F3801126
:1019F8005206DAD5082280F82B105A70036801695C
:101A08005A6A94791378527943EAC41343EA021361
:101A180043F00203DBB2CB700269537943F0010350
:101A28005371B0E7002BAED003685B6ADB79002BFB
:101A3800A9D00421C8E70023B32190F8265084696F
:101A4800026980F82C3080F828500462C36180F85D
:101A58002A30D1710121B7E703697BE7B00500227D
:101A68000060004030B51A4B83B01A68194901323A
:101A78001A601B68896823B900240025164BC3E93E
:101A880000450122154B48681A705A7038B1032274
:101A98008B68684601934B688DF800209847104A78
:101AA800D2F8483443F00103C2F84834EFF3038313
:101AB800103B0C4A5BB203F5C65352F8231021F4CD
:101AC800803142F8231052F8233003B030BD00BFF4
:101AD8004C0500225805002250050022080000226B
:101AE80000303440006000401E4A92F8263092F8D8
:101AF8002420DBB202F00F02A2F1080103292BD83F
:101B0800DFE801F020160C021749184A51F8233073
:101B1800A2FB03231B09164A136070471249134A94
:101B280051F82330A2FB0323114ADB0813607047E6
:101B38000D490E4A51F82330A2FB03230C4A9B0897
:101B4800136070470849094A51F82330A2FB032360
:101B5800074A5B0813607047034951F82330D340A4
:101B6800D9E700BF00E0014080040022ABAAAAAA7E
:101B7800F8050022000000004AF203500122F8B5DF
:101B88006749684BA1F8FA039A809C88A4B2002C94
:101B9800FBD101259FED5E6B9FED5F7B624A634938
:101BA8006348C2E90711C2E904401D8082ED007F45
:101BB800FFF79AFF0A210922594B83F8501A83F834
:101BC800A22083F8005C83F8364083F8004483F849
:101BD800324093F83C201207FBD544F6017040F2DE
:101BE800212100224E4C1885A3F84C1083F82A2096
:101BF80094F83C309B06FBD5042201250526494B69
:101C08004C4F1A77276284F8245084F82660FFF72F
:101C18006BFF2946962000F0F1F8002384F8243061
:101C28002762FFF761FF2946962000F0E7F884F85D
:101C38002660FFF759FF4AF201523F4B1A80BFF363
:101C48005F8F1D72BFF35F8F4FF4254602208221FC
:101C58001E8084F8305084F8525084F8535084F829
:101C68003E0084F83E1094F874302D4A43F0400347
:101C780084F8743092F87430DB09FBD000234020DC
:101C8800274982F86C3082F8740082F8743091F831
:101C98007430DB09FBD191F85530214A43F04003F9
:101CA80081F8553092F85530DB09FBD0C523022066
:101CB80082F8540082F8553092F85530184903F0EC
:101CC800BF0382F8553091F85530DB09FBD191F804
:101CD8005F30134A43F0400381F85F3092F85F3079
:101CE800DB09FBD0C52082F85E3082F85F0092F8ED
:101CF8005F300B4903F0BF0382F85F3091F85F3023
:101D0800DB09FBD14FF42543A1F8FA33F8BD00BF36
:101D1800006CDC0200127A000080000000366E01C0
:101D280000E0014000C101408004002200D01213ED
:101D380000389C1C3223123100200040012110B5CC
:101D4800284CC82084F8281000F058F8002384F89C
:101D5800243094F82430002BFBD194F82430214906
:101D680043F0020384F8243091F82430C3F3400090
:101D78009B07F9D41B4A81F8220092F8223003F01D
:101D8800FF00002BF9D192F84030164960F3C713D1
:101D980082F8403091F84030DB09FBD191F84200DD
:101DA800104A63F3C71081F8420092F84230DB0909
:101DB800FBD192F844000B4963F3C71082F8440042
:101DC80091F84430C3F3C014DB09F9D1012000F0C5
:101DD800C1F8054B012083F84C4CBDE8104000F0D9
:101DE80089B800BF0020204000E00140704700BFD4
:101DF800A0F101000028FBD1704700BF1E4B1F4A0D
:101E08001B6800FB01F1934213D302F1854202F5EE
:101E1800071203F5742302F6834203F23F23A2FB61
:101E280003239B0CA3FB01314FF0FF30E1B1FFF717
:101E3800DFBF4FF47A7210B4114C4FF0FF30B4FB8F
:101E4800F3F3A1FB02C434B9BCFBF3F080B15DF835
:101E5800044BFFF7CDBFB1FBF3F1A1FB0212002A3F
:101E6800F5D1084620B1F2E71846002BDFD17047BC
:101E78005DF8044B704700BFF805002200127A0095
:101E880000CA9A3B70B500240D4B0E4EB3F80021E2
:101E9800B3F82051ADB2154025FA04F3DB0704D599
:101EA80056F82430E0B203B198470134102CF3D12E
:101EB800034AA2F81051B2F820311D42FBD170BD7F
:101EC80000C000406805002200220F2310B4074814
:101ED800074C30F8021F02F5C65C013209B144F81C
:101EE8002C10013BF5D15DF8044B7047F62E00022B
:101EF80000600040EFF31081012383F31088124B38
:101F080033F8102092B22AB133F81020013A92B275
:101F180023F8102033F810309BB293B910B40B4A51
:101F28000B4CB2F8FA3334F810009BB243F4254353
:101F380023EA0003A2F8FA3381F310885DF8044B12
:101F4800704781F310887047EC05002200E00140DB
:101F5800A030000230B4EFF31081012383F310881E
:101F68000E4A32F810309BB26BB90D4C0D4DB4F8D7
:101F7800FA3335F810C09BB243EA0C0343F4254307
:101F88009BB2A4F8FA3332F8103001339BB222F82E
:101F9800103081F3108830BC704700BFEC05002278
:101FA80000E00140A030000208B500F0E5FB0C227B
:101FB80003461A604FF0FF3008BD00BFF8B506466B
:101FC8002E4C94F8503C03F0FF05002BF9D18723E1
:101FD800A4F8243C84F8005C002E3CD101220023A4
:101FE800264981F8022C81F8013C91F8503C002BDD
:101FF800FBD1BEB14FF40C73204AA1F8483C92F8CB
:10200800503CD907FBD4012347F2A8311C48C2F839
:10201800440C82F8403CA2F8141C82F8163C82F862
:10202800003CF8BD012347F2A830154C134AC1F80B
:10203800444C81F8403CA1F8140C81F8163C92F805
:10204800003CDB07FBD492F8503C002BF7D101236E
:1020580082F8103CF8BD01272846FFF77BFF094BA3
:10206800284683F85370FFF745FF044A84F8207C1C
:1020780092F8503C1807FBD4B0E700BF003000408E
:102088000325050000E0014000BE704708B500F0D8
:1020980037F8FEF7E3FAFEE7F8B5174F05463E684E
:1020A800A6B17C6806EB460604EB860602E00C3413
:1020B800B4420BD0637AAB42F9D1D4E900020021D3
:1020C800121A0C3400F00AFBB442F3D1BE6896B180
:1020D800FC6804EB061602E01034A6420BD0637BC2
:1020E800AB42F9D1D4E90002A168121A103400F009
:1020F8004CFBA642F3D1F8BD202F000200000000DF
:10210800704B714A70B55A61BFF34F8FBFF36F8F31
:102118001B6803F47002B2F5801F00F0A78013F467
:10212800600F00F08F80694A136843F0040313605E
:10213800BFF34F8FBFF36F8F4FF47002644B614C46
:102148000020C4F88820A360FEF780F8FFF714FD8C
:102158000120FEF77BF85F4B83F30A885B4B1A6814
:10216800920704D5A268B2F1007F00F083800020B6
:10217800FFF792FFFFF7B8FCFFF7E0FD0320FFF73A
:10218800E9FE00234FF00C0E1C464EF001E05249C8
:1021980003F10C0221F8224001330FF007C8032095
:1021A800FFF7A8FE0320FFF7D5FE4C4B03205C6029
:1021B8009C60DC601C614A4CFFF79CFED4F8D83365
:1021C8003BB3D4F8D8330220FEF740F80120FFF7DC
:1021D80063FFBFF34F8FBFF36F8F0024394BC3F8F2
:1021E8005042BFF34F8FBFF36F8F3E4B3E4D5B1B8B
:1021F800A3424FEAA30605DD55F8043B013498478E
:10220800A642F9DCFFF760FEBDE870400020FFF74A
:10221800EDBD94F81031002BD5D00120FFF79AFEC0
:1022280094F8103103F0C003802BF9D100232C4A15
:1022380084F8103192F810313F2BFBD80120FFF7BA
:1022480059FEC0E7214A136843F004031360BFF343
:102258004F8FBFF36F8F4FF0E022936843F48033C2
:102268009360BFF34F8FBFF36F8F65E719077FF454
:102278005AAF54E7012100261A695869C2F3C3030B
:10228800093301FA03F3002400253246DB0843F042
:1022980007C800BFAFF30080E2E802450FF005C0B1
:1022A800C0F3C303093301FA03F34FF00052DB080C
:1022B80043F007C0AFF30080E2E802450FF005C025
:1022C80055E700BF00ED00E001020E0000E001E06C
:1022D8000000000280000022000D40400040204025
:1022E80000E001400831000204310002002310B56B
:1022F80004468360818119464366C281082283614E
:10230800C0E90033C0E904335C3000F0E7F90D4B55
:10231800246263620C4BA3620C4BE3620C4B236395
:102328000C4B9C4206D003F16802944202D0D03391
:102338009C4205D104F15800BDE8104000F022BAD3
:1023480010BD00BF35250002572500028F25000269
:10235800B3250002FC050022024A0349034800F0A5
:1023680069B800BF0C000022B52A00021C00002238
:1023780041680C4B994210B5044601D000F096FB19
:10238800A168094B994202D0204600F08FFBE16812
:10239800064B994204D02046BDE8104000F086BBA9
:1023A80010BD00BFFC05002264060022CC060022F6
:1023B80010B50B4B04210B4C0B4A20461A60002227
:1023C800FFF794FF04F1680001220921FFF78EFF4F
:1023D80004F1D00002221221BDE81040FFF786BFA9
:1023E80034070022FC05002261230002014800F0A6
:1023F800CAB900BF3D070022014800F0C5B900BFB7
:102408003D07002210B50446FFF7F0FF236A1BB111
:10241800BDE81040FFF7F0BF044B2362044B1B6874
:10242800002BF5D1FFF7C4FFF2E700BF79230002C4
:10243800340700222DE9F84307468846144600264B
:10244800D4E90195B9F1010905D52468002CF7D123
:102458003046BDE8F883AB89012B07D9B5F90E30B2
:10246800013303D029463846C04706436835E9E7B3
:10247800036A70B505460E4684680BB9FFF7C2FFBC
:10248800636EDB0705D4A389980502D4A06D00F01C
:102498007AF9A389190702D52369002B35D121467A
:1024A800284600F0C5F880B34FF0FF35636EDA07B1
:1024B80005D4A3899B0502D4A06D00F065F92846D0
:1024C80070BD002B04DAA2699A4217DC0A2915D0DC
:1024D80023685A1C22601970A36816F8011F013B73
:1024E800A3600029EDD1002B11DA22460A212846E3
:1024F80000F05FF80130D7D00A25D7E722462846F2
:1025080000F057F80130E7D1CEE7013EE4E7236851
:102518005A1C22600A221A70EEE70000024B01469C
:102528001868FFF7A5BF00BF1800002210B50C46B9
:10253800B1F90E1000F0FCF80028ABBF636DA38959
:102548001B1823F48053ACBF6365A38110BD2DE92C
:10255800F0411F468B8905460C46DB05164605D516
:1025680002230022B1F90E1000F0D0F8A3893246F8
:10257800B4F90E10284623F48053A3813B46BDE8E6
:10258800F04100F0E7B810B50C46B1F90E1000F0B4
:10259800BDF8431CA38915BF606523F4805343F439
:1025A8008053A38118BFA38110BDB1F90E1000F0AC
:1025B8009DB8F8B50E461446054618B1036A0BB91E
:1025C800FFF720FFA369A360A3891A0701D5236930
:1025D80043B92146284600F02BF818B14FF0FF37D1
:1025E8003846F8BD2368F6B222693746981A6369F7
:1025F800834205DC2146284600F058FA0028EDD130
:10260800A368013BA36023685A1C22601E70431C08
:1026180062699A4204D0A389DB07E1D50A2EDFD18B
:102628002146284600F042FA0028D9D0D6E7000013
:1026380038B5294B05460C46186818B1036A0BB91A
:10264800FFF7E0FEB4F90C30190722D4DA0607D4F4
:1026580009222A6043F040034FF0FF30A38133E0A2
:10266800580712D5616B41B104F14403994202D075
:10267800284600F09FF800236363A38923F024030E
:10268800A3810023636023692360A38943F00803BF
:10269800A38123694BB9A38903F42073B3F5007FA1
:1026A80003D02146284600F04EFAB4F90C3013F056
:1026B80001020AD00022A26062695242A261226924
:1026C80042B913F08000C5D138BD990758BF626977
:1026D800A260F4E70020F7E718000022024403464E
:1026E800934200D1704703F8011BF9E738B500237E
:1026F800054D044608462B60FDF756FF431C02D1E2
:102708002B6803B1236038BD3807002238B504466A
:10271800064D0846114600222A601A46FDF74EFF6C
:10272800431C02D12B6803B1236038BD380700224F
:1027380038B50446064D0846114600222A601A4656
:10274800FDF73EFF431C02D12B6803B1236038BD5F
:102758003807002238B50446064D084611460022BF
:102768002A601A46FDF704FD431C02D12B6803B109
:10277800236038BD38070022014B1868704700BF36
:10278800180000227047704770470A44431E914260
:1027980000D1704710B511F8014B914203F8014F71
:1027A800F9D110BD034613F8012B002AFBD1181AE2
:1027B8000138704738B50546002941D051F8043C26
:1027C8000C1F002BB8BFE41800F0E0F81D4A13688E
:1027D80033B9636014602846BDE8384000F0DCB8BF
:1027E800A34208D9206821188B4201BF19685B6889
:1027F80009182160EDE71A465B680BB1A342FAD9C4
:1028080011685018A0420BD120680144501811607B
:102818008342E0D118685B68084453601060DAE7C7
:1028280002D90C232B60D6E7206821188B4202BFFF
:1028380019685B680918636008BF21605460CAE7BB
:1028480038BD00BF4407002270B50F4E0C46054640
:10285800316811B900F0D6F930602146284600F0F9
:10286800D1F9431C03D14FF0FF34204670BDC41C7E
:1028780024F00304A042F8D0211A284600F0C2F937
:102888000130F2D1EFE700BF400700222DE9F843FD
:10289800CD1C064625F0030508350C2D38BF0C2540
:1028A800002D01DBA94204D90C2333600020BDE8C8
:1028B800F883DFF8D48000F069F8D8F800301C46B7
:1028C80044BB29463046FFF7BFFF431C044658D196
:1028D800D8F800402746002F43D1002C4BD023685E
:1028E8003946304604EB030900F08CF9814542D1A2
:1028F800216830466D1A2946FFF7A6FF01303AD005
:1029080023682B442360D8F800305A6862BBC8F8A3
:1029180000700FE02268521B20D40B2A17D96119C6
:10292800A342256018BF5960636808BFC8F8001043
:1029380062514B60304600F02FF804F10B00231D64
:1029480020F00700C21A1CBF1B1AA350AFE7626829
:10295800A3420CBFC8F800205A60EBE7234664681E
:10296800AEE73C467F68B6E71A465B68A342FBD1F0
:1029780000235360DEE70C233046336000F00CF888
:1029880094E70560D6E700BF440700220148FFF737
:10299800FABE00BF3C0700220148FFF7F5BE00BFA2
:1029A8003C070022B1F90C202DE9F0411607054635
:1029B8000C4654D44B68002B02DC0B6C002B48DD12
:1029C800E66A002E45D0002312F480522F68216A4F
:1029D8002B6030D0626DA389590705D56368D21A78
:1029E800636B0BB1236CD21A0023E66A216A28466E
:1029F800B047431CA38906D129681D292BD82A4A28
:102A0800CA40D60727D50022D9046260226922600D
:102A180004D5421C01D12B6803B96065616B2F6036
:102A2800B9B104F14403994202D02846FFF7C2FE27
:102A3800002363630DE001232846B0470246501C7B
:102A4800C9D12B68002BC6D01D2B01D0162B1DD148
:102A58002F60002021E043F040031BB21AE00F6909
:102A6800002FF6D093070E680F600CBF4B69002348
:102A7800A6EB07088B60B8F1000FEADD43463A463B
:102A8800216A2846A66AB047002808DCB4F90C3049
:102A980043F040034FF0FF30A381BDE8F0810744C5
:102AA800A8EB0008E7E700BF0100402038B50B6934
:102AB80005460C4613B90025284638BD18B1036AE7
:102AC8000BB9FFF79FFCB4F90C30002BF3D0626E02
:102AD800D00704D4990502D4A06DFFF754FE284608
:102AE8002146FFF75FFF636E0546DA07E4D4A38942
:102AF8009B05E1D4A06DFFF747FEDDE770B50C46F6
:102B0800B1F90E1096B0154600291E460CDAA389B5
:102B1800002113F0800F14BF40234FF4806300207E
:102B280031602B6016B070BD6A4600F049F8002885
:102B3800EDDB019901F47041A1F500535942594167
:102B48004FF48063EBE78B89F7B59D0706460C4683
:102B580007D504F14703236023610123636103B0B0
:102B6800F0BD01AB6A46FFF7C9FF009F0546304636
:102B78003946FFF78BFE48B9B4F90C309A05EED404
:102B880023F0030343F00203A381E2E7A389206053
:102B980043F08003A381019BC4E904075BB1B4F946
:102BA8000E10304600F01EF828B1A38923F0030365
:102BB80043F00103A381A3891D43A581CFE700004A
:102BC80038B50023064D0446084611462B60FDF72C
:102BD800EDFC431C02D12B6803B1236038BD00BF54
:102BE8003807002238B50023054D044608462B60F7
:102BF800FDF7DEFC431C02D12B6803B1236038BD0E
:102C08003807002238B50023054D044608462B60D6
:102C1800FFF7CAF9431C02D12B6803B1236038BD02
:102C2800380700224465757320C3A9206F205265B8
:102C3800690D00002A2A20525F4949435F4D4153DC
:102C48005445525F536C6176654164647265737371
:102C580053657420415049206661696C65642A2077
:102C68000D0000002A2A20525F4949435F4D415315
:102C78005445525F57726974652041504920666116
:102C8800696C6564202A2A200D0000002A2A204940
:102C98003243207472616E73666572206661696C76
:102CA80065642C206F7065726174696F6E20616253
:102CB8006F727465642A2A200D000000000000006D
:102CC800A086010048000000010C0708090A00005E
:102CD80000000000000000003903000200000000AE
:102CE800EC2C0002010104100F0000000402000097
:102CF8000C0B0C0C0C0D0C0E00000000000000006A
:102D08002506000200000000142D0002000100004A
:102D1800040000220F00FFFF000000010100000076
:102D280038000000342D000200000000000C010BE8
:102D38000C010000000C010B0D010000000C010B40
:102D48000E010000000C010B0F0100000000000044
:102D5800000200000000011F060200000000010040
:102D68000802000000000100090200000000010044
:102D78000A020000000001000B020000000C010B19
:102D880000030000000C010B01030000000C010B04
:102D980002030000000C010B03030000000C010BF0
:102DA80004030000000C010B05030000000C010BDC
:102DB80006030000000C010B07030000000C010BC8
:102DC80008030000000C010B09030000000C010BB4
:102DD8000A030000000C010B0B030000000C010BA0
:102DE8000C030000000001130704000004000000A9
:102DF800080400000004010709040000000401079A
:102E08000A040000040000000B0400000400000095
:102E18000C040000000001040E040000000001047E
:102E28000F040000000C010B01060000000C010B50
:102E380002060000000C010B03060000000C010B49
:102E480004060000000C010B05060000000C010B35
:102E580006060000000C010B07060000000C010B21
:102E680009060000000C010B0A060000000C010B0B
:102E78000B060000000C010B0C060000000C010BF7
:102E88000D060000000C010B0E060000000C010BE3
:102E98000F060000040000000607000000000113F0
:102EA8000E080000000001130F080000000C010BC1
:102EB80005090000000C010B06090000000C010BBD
:102EC80008090000000C010B09090000000C010BA7
:102ED800000A0000000C010B080A00000008010BA2
:102EE800090A0000000C010B0A0A0000000000009B
:102EF800CD01D301D401D501D601D701D8015C0099
:102F08005D005E005F004001410142014301000095
:102F1800020403040404000008000000403000021A
:102F28000F000000502F000203000000382F00029D
:102F380000000068000000680000008000000080B9
:102F48008000002280000022000000680000006865
:102F5800000000900001090D0000006800000068F2
:102F6800000000270001020D000000680000006852
:102F78007C0000020001010D0000008000000080BC
:102F88000000009000010908000000800000008097
:102F980000000027000102080000008000000080F7
:102FA8007C00000200010108000000000000000091
:102FB8000000009001010905000000000000000069
:102FC80000000027010002050000000000000000CA
:102FD8007C00000201000105000000200000002024
:102FE80000000090010109040000002000000020FA
:102FF800000000270100020400000020000000205B
:103008007C000002010001040000002200000022F0
:1030180000000090000109030000002200000022C7
:1030280000000027000002030000002268000022C0
:103038007C00000200000103000000680000006836
:103048000001000D00000068000000680001000D8C
:1030580000000080000000800001000800000080DF
:1030680000000080000100080000000000000000CF
:1030780001000005000000200000002001000004FD
:10308800680000228000002200000003B004002233
:103098004807002200000003010002000800100099
:1030A800200000004275696C7420776974682052AA
:1030B800656E6573617320416476616E6365642033
:1030C800466C657869626C6520536F6674776172C7
:1030D80065205061636B6167652076657273696FFF
:1030E8006E20362E312E3000362E312E3000000064
:0430F80000000106CD
:0430FC00F8B500BF64
:04310000F8B500BF5F
:04310400550100026F
:043108002D01000293
:08310C00A0F6FF7F01000000A6
:020000040300F7
:04A10000FFFFFFFF5F
:04A10400FFFFFFFF5B
:04A20000FFFFFFFD60
:04A2800000000000DA
:040000050200209540
:00000001FF
