:020000040200F8
:10000000A050002231390002053700022D390002CC
:100010002D3900022D3900022D3900022D39000240
:100020000000000000000000000000002D39000268
:100030002D390002000000002D3900022D39000288
:1000400009320002C51B0002191C00026D1C0002CF
:10005000511D0002B51D0002091E0002A12500026B
:1000600035270002592800023D290002A90F00028D
:0C007000190F0002391000028510000278
:10007C000100000030008000580020032004010023
:10008C000400170058027402010100000200000075
:10009C00409C00001019000001010000000000004D
:1000AC0003000000705200223C00002200000000FF
:1000BC0070520022D852002240530022000000004F
:1000CC000000000000000000000000000000000024
:1000DC000000000000000000000000000000000014
:1000EC000000000000000000000000000000000004
:0800FC000000000000000000FC
:100108000348044B834202D0034B03B1184770479E
:10011800880000228800002200000000064B0749E2
:10012800C91A891048BF0131491003D0044B0BB1DB
:1001380001481847704700BF880000228800002245
:100148000000000010B5064C237843B9FFF7D8FF2C
:10015800044B13B10448AFF300800123237010BD92
:10016800D05000220000000084A2000308B5054B0F
:100178001BB105490548AFF30080BDE80840FFF70B
:10018800CDBF00BF00000000D450002284A20003AD
:1001980030B514460D46A1B080220021684603F010
:1001A800FBFE22462946684603F0FEFE002204F1C3
:1001B80080036B44684603F8802C00F0A3FC2046BB
:1001C80021B030BD38B5424A536913F4003311D118
:1001D800BFF34F8FBFF36F8FC2F85032BFF34F8F0B
:1001E800BFF36F8F536943F400335361BFF34F8FED
:1001F800BFF36F8F00F07EFC3649374802F058F99C
:10020800EFF31081012383F31088344B1A681AB96D
:1002180040243348027504751A6801321A6081F364
:100228001088304C304DD4F8D8314FF47A712B40C7
:1002380043F005030520C4F8D83103F01BFAD4F8BD
:10024800D8314FF47A712B4043F004030520C4F8E9
:10025800D83103F00FFAD4F8D8314FF47A712B4023
:1002680043F005034FF4FA70C4F8D83103F002FAEA
:10027800D4F820312B4043F00503C4F82031D4F8DA
:1002880030312B4043F00403C4F8303100F0DEFA7B
:10029800012000F06DFA00F0E7FB00F083FAD4F8D3
:1002A80084324FF47A712B4043F00403C4F884324B
:1002B800C82003F0DFF9D4F884324FF47A712B4068
:1002C80043F00503C820C4F8843203F0D3F9E4E707
:1002D80000ED00E0844E000248510022185200222E
:1002E800000D404000084040FE3FFEFF022800D0BD
:1002F800704708B50449054801F08AFEBDE8084082
:10030800012003F0A9BA00BFE84E000210510022F4
:10031800844610B513460C4682B001226146164841
:100328008DF805308DF8044001F024FF034610B124
:10033800184602B010BD114C02220F4801A92370C3
:1003480001F066FF03460028F2D122785AB90C4919
:100358000C4A03E0013A01F1FF3104D000BF2078D4
:100368000028F7D011B12278032AE1D04FF4967310
:10037800184602B010BD00BF4851002200000022FC
:10038800FEFF0F00FFFF0F0030B5054613460C4671
:1003980083B02946012224481D468DF8074001F004
:1003A800E9FE844610B1604603B030BD01231F4CFE
:1003B8001A461D480DF1070184F800C001F028FF16
:1003C80084460028EFD123785BB91948194B03E01C
:1003D800013B00F1FF3004D000BF21780029F7D09D
:1003E800E8B12378032B1AD10023012229460E48AD
:1003F800237001F0DDFE84460028D4D123785BB950
:100408000B4A0C4B03E0013B02F1FF3204D000BF62
:1004180021780029F7D012B12378022BC3D04FF4EA
:10042800967C604603B030BD48510022000000228F
:10043800FEFF0F00FFFF0F0010B10279014B1A7089
:10044800704700BF0000002208B5FF22082148209D
:10045800FFF75EFFFF2209214820FFF759FFFF221F
:100468000A214820FFF754FF7C220B214820FFF780
:100478004FFFBDE80840FF220C214820FFF748BF86
:1004880008B5B12231214820FFF742FFB1223221BD
:100498004820FFF73DFF0E2233214820FFF738FFA1
:1004A800002237214820FFF733FF22223821482035
:1004B800FFF72EFFBDE80840822260214820FFF7A1
:1004C80027BF00BF08B5312244214820FFF720FF8D
:1004D800442255214820FFF71BFF012257214820BD
:1004E800FFF716FFBDE8084002225A214820FFF70F
:1004F8000FBF00BF70B5054641223C214A202C8B16
:10050800EE8AFFF705FF2B7D6A7D240142EA43024C
:10051800F6B2AB21D2B2482044F00804FFF7F8FE47
:10052800E4B206F1A102224452424321D2B24A2047
:10053800FFF7EEFE102244214A20FFF7E9FE22468B
:1005480045214A20FFF7E4FE002246214A20FFF712
:10055800DFFE3246BDE8704047214A20FFF7D8BE8B
:1005680008B5042210214920FFF7D2FE10221121DC
:100578004920FFF7CDFE042212214920FFF7C8FECB
:10058800022213214920FFF7C3FE0022142149202B
:10059800FFF7BEFE002215214920FFF7B9FE03220E
:1005A8001A214920FFF7B4FEBDE8084003221B21A9
:1005B8004920FFF7ADBE00BF10B504461821A27848
:1005C8004920FFF7A5FE227B19214920FFF7A0FE4D
:1005D800A2791C214920FFF79BFEE2881D21120AFF
:1005E8004920FFF795FE0C222F214920FFF790FEA6
:1005F800227A34214920FFF78BFE22893521120AFD
:100608004920FFF785FEA27C36214920FFF780FEAE
:10061800628A3721120A4920FFF77AFEA27B382125
:100628004920FFF775FEE2893921120A4920FFF7B0
:100638006FFEA27A3A214920FFF76AFE62893B21C0
:10064800120A4920FFF764FE22793C214920FFF76E
:100658005FFEA2883D21120A4920FFF759FE227841
:100668003E214920FFF754FE22883F21BDE8104073
:100678004920120AFFF74CBE08B57F220321482003
:10068800FFF746FE4FF47A710A2002F0F3FFFF22CB
:1006980003214820FFF73CFEFB2205214820FFF7F5
:1006A80037FE4FF47A710A2002F0E4FFBDE80840F3
:1006B800FF2205214820FFF72BBE00BF024610B5D8
:1006C800154BD169154CA3FB0131C1F3871101FB0F
:1006D80004F41348224603F017FB04F0FE024E21EF
:1006E8004920FFF715FEC4F307224F214920FFF7E1
:1006F8000FFEC4F3074250214920FFF709FE0F22DD
:100708001E214920FFF704FEBDE810408022512138
:100718004920FFF7FDBD00BFD34D6210166C0100E4
:10072800D04A000208B5104803F056FB0122B22156
:100738004820FFF7EDFD082206214A20FFF7E8FDD3
:10074800F02207214A20FFF7E3FDD22234214A2074
:10075800FFF7DEFD2B220F214A20FFF7D9FDBDE868
:100768000840024803F038BB084B0002244B000243
:1007780008B548B10E2233214820FFF7C9FDBDE86E
:100788000840064803F028BB0C2233214820FFF715
:10079800BFFDBDE80840024803F01EBB3C4B000209
:1007A800544B0002002300B583B0C12148200DF14D
:1007B80007028DF80730FFF7E7FD88B99DF9073084
:1007C800002B06DB084803F007FB002003B05DF8A8
:1007D80004FB064803F000FB012003B05DF804FBAE
:1007E800034803F0F9FAF0E7844B00026C4B00026F
:1007F8009C4B0002002100B583B048200DF1060291
:100808008DF806108DF80710FFF7BEFD30B90121ED
:1008180048200DF10702FFF7B7FD58B1094803F06A
:10082800DBFA9DF806009DF8073043EA002003B084
:100838005DF804FB9DF807209DF80610024803F0B8
:1008480063FAEEE7E84B0002C44B000210B5FFF76D
:10085800D1FFFFF7F9FDFFF713FE452239214820A4
:10086800FFF756FD00223A214820FFF751FD0022EC
:100878003B214820FFF74CFDFFF724FED6223E21FE
:100888004820FFF745FD194CD4223F214820FFF7A7
:100898003FFD3C2241214820FFF73AFDFFF760FE6B
:1008A8002046FFF789FE2046FFF708FF2046FFF79E
:1008B80021FEFFF737FFFFF7DFFEFB220521482067
:1008C800FFF726FD4FF47A71142002F0D3FEFF22C1
:1008D80005214820FFF71CFD0E2233214820FFF791
:1008E80017FDBDE81040024803F076BA0400002264
:1008F8003C4B0002037843B1052B05D1074A4168F8
:1009080013680B431360704770474368B3F5807FE3
:10091800F9D10122024B1A70704700BFF050002233
:10092800EC5000222DE9F043DFF82C813E4FB8F857
:10093800063089B0B8F804103C4D3D4E3B80D8F8DD
:1009480008303C483360298003F0DEF939883A489A
:1009580003F0DAF93168394803F0D6F92B88B7F88B
:1009680000C0D8F800200CFB03F3354C9B00354938
:10097800DFF8E890226034481A440B60C9F8002078
:1009880002F078F8002844D1EE46DFF8D4802468D5
:10099800D8F800302D88A34208BFD9F80040DFF806
:1009A800C4903F88B9E80F00AEE80F0099E80F003F
:1009B800C8F800408EE80F004FEAD50CD7B10020E8
:1009C80085B1002245F001E0211FB2FBFCF30DF1D7
:1009D800200909EB830353F8203C013241F8043F16
:1009E8000FF00DC833680130B84204EB8304E7D137
:1009F800D8F8004000222146134802F059F868B997
:100A08000023124A13701378002BFCD009B0BDE8FC
:100A1800F08301460E4803F077F9B5E701460D4823
:100A280003F072F9ECE700BF085100220A510022D6
:100A380000510022104C00021C4C00022C4C0002F9
:100A4800FC5000220451002218510022ED500022CF
:100A58003C4C0002604C00020C4D0002F850002291
:100A6800F4500022EC4C000208B51049104802F07E
:100A7800BBF940B90F49104800F02CFD68B9BDE832
:100A88000840FFF74FBF01460C4803F03DF90949FC
:100A9800094800F01FFD0028F1D00146084803F07E
:100AA80033F9BDE80840FFF73DBF00BF0C4D000219
:100AB80018510022B04D000228510022884C000233
:100AC800B84C00020378032B02D10122014B1A70A3
:100AD800704700BFED50002200207047002070478B
:100AE800013801288CBF0020012070470020704782
:100AF800002070470149024800F0C8B8B44E00020F
:100B08008851002238B5054603F0BEFA0246002394
:100B18000B4C29460B48D2B2237000F03DF848B977
:100B2800094B04E0013B09D02278782A03D02278C7
:100B3800022AF7D138BD4FF4967038BD142038BD5D
:100B48000C51002288510022FCFF03000C49037954
:100B58000C4A0B701178042904BF00211170042B72
:100B680000D0704783680D2B04D013780133DBB2B3
:100B78001370704700200121034B107019707047E3
:100B88000C5100220E5100220D51002208B5FFF72A
:100B980019FB002008BD00BF844610B4006A8368B2
:100BA80023F440138360DCF82040A36C5800FCD584
:100BB800A36823F01003A360DCF82040237FC3F36D
:100BC8000010DB06FAD4CCE90312A36843F0101333
:100BD800A3605DF8044B704730B40124164D5309E7
:100BE80002F01F0C203304FA0CF445F82340BFF33D
:100BF8004F8FBFF36F8F114B02F5C65C53F82C4033
:100C080024F4803443F82C4053F82C300901002A8E
:100C1800C9B207DB0A4B154485F8001343F82200D4
:100C280030BC7047074B02F00F0423441976044B7D
:100C380043F8220030BC704700E100E0006000404B
:100C480020520022FCEC00E0F0B5846A85B005462D
:100C58000F4694466E46B4B194E80F0086E80F003C
:100C6800EB6920461B78A760236084F804C0EB6A10
:100C7800E3606B6A9847AC6A1CB196E80F0084E899
:100C88000F0005B0F0BD3446EAE700BF00222DE9A9
:100C9800F04101270B78027003F5800303F55653E2
:100CA8001B020362C1614B690D4643628B690446AE
:100CB800C0E90A238378CE6967F3010383704B7810
:100CC800934214BF3A460222837862F30103837089
:100CD80091F90B20897AFFF77FFF95F9052029798B
:100CE800FFF77AFF95F90720A979FFF775FF95F9BE
:100CF8000920297AFFF770FFEFF3108887F310882F
:100D08004FF000412A787A4BD1405A6822EA010212
:100D18005A605B689620394602F0ACFC88F310886C
:100D28004FF48062236A9A606B78E978EA691B025B
:100D3800890301F4804103F440730B431178506830
:100D4800090601F040710B435178C90389B20B437E
:100D5800517B490501F400110B43216A43F4805388
:100D68004B611378991EB94240F2BB800368216A2F
:100D78000B61117BAB7801F0030141F0300133B115
:100D8800022B14BF4FF440734FF4807319430020B3
:100D980093781B0703F080530B43216ACB60216AC9
:100DA8000123886140F21F21287883400B4202D03A
:100DB800236A504959620021937BD07B127C00F052
:100DC8001F0003F0010343EA002302F01F02206A18
:100DD80043EA02430363C4E90311C4E90511226A23
:100DE8007589454825819066E269444B92F905204A
:100DF80002F5C65053F8205061F3104543F82050CF
:100E080053F82000BFF35F8F012002F01F0552093D
:100E1800920002F1604202F5614200FA05F5C2F85B
:100E280080511560E26992F90B2002F5C65553F816
:100E3800256061F3104643F8256053F82550BFF349
:100E48005F8F02F01F055209920002F1604200FA1A
:100E580005F502F56142C2F880511560E26992F920
:100E6800072002F5C65553F8256061F3104643F88C
:100E7800256053F82550BFF35F8F02F01F05520914
:100E8800920002F1604200FA05F502F56142C2F8EB
:100E980080511560E26992F9092002F5C65553F8A8
:100EA800256061F3104643F8256053F82530BFF3F9
:100EB8005F8F53099B0002F01F0203F160439040CB
:100EC80003F56143C3F8800118600D4A236A9A60EC
:100ED800226A137FDB07FCD50A4B00206360BDE85C
:100EE800F0810949022B094B18BF0B463FE700BFA9
:100EF8000030204000001F1F1000079D00600040C8
:100F0800110401004249435304FF00FF24FF00FF7E
:100F1800EFF30383103B204A5BB203F5C65152F846
:100F2800210020F4803042F8210052F821201B4A89
:100F380052F82300C3691B6983B1036903B1704781
:100F4800026A0021936823F4801343F4001393602A
:100F5800436AC160C3B18022FFF776BE0369026AA3
:100F6800002BEED08378C16803F00303022B0CD06A
:100F78000B7813718278D0E9031302F003029B1AED
:100F88001144C0E90313D9E770470B8823F4DC4305
:100F98009BB25360EEE700BF006000402052002281
:100FA80010B582B0EFF30383103B1F4A5BB203F521
:100FB800C65152F8210020F4803042F8210052F83E
:100FC80021201A4A52F82340A27802F00303022B88
:100FD800236A0CBF19681978A3690CBFC1F308010B
:100FE800C9B2019143B9636AB3B10422204602B081
:100FF800BDE81040FFF728BE02F0030201A96069AE
:1010080003F035F8D4E90521A37803F003031A4463
:10101800C91AC4E9052109B102B010BD636A002BE1
:10102800FAD00122E2E700BF00600040205200220F
:1010380010B5EFF303830F4A103B5CB252F824005B
:10104800026A936823F4401323F010039360436A01
:101058001BB102220021FFF7F7FD074A04F5C6532A
:1010680052F8231021F4803142F8231052F823302B
:1010780010BD00BF205200220060004038B5EFF3D9
:1010880003831D4A103B5CB252F824008378056A3A
:1010980003F00303022B0CBF29682978AA6C08BF48
:1010A800C1F30801C2F30073C2F3006C4FEA0313E3
:1010B80043EA4C13C2F3C06243EAC20C18BFC9B278
:1010C800DB06624604D5AB6C1B0458BF4CF04002EB
:1010D800AB6E43F0C853AB66436A0BB1FFF7B4FD80
:1010E800064A04F5C65352F8231021F4803142F819
:1010F800231052F8233038BD2052002200600040EF
:10110800084B00211A6A22F001021A629A6842F01A
:1011180001029A601A6922F001021A610346084620
:1011280019607047006C344030B5354B84461A6AF4
:1011380093F82430C2F303344FEA123E03F00F024F
:10114800DDB244EA02002F4B00071B6811D52807BF
:101158004BD401201EF0080F00FA02F04DD00324F2
:101168000EF0070204FA02F200FB03F3B3FBF2F2FB
:1011780002E003FA02F2E2402348244BA0FB0202F9
:10118800920C1868013AD2B262F3070018601A6923
:1011980042F001021A61DA69D207FCD508681B4AD5
:1011A8005860D8680C7964F30400D860986820F017
:1011B80001009860D369DB05FCD58B68144C18686E
:1011C800C0F312005062586890629868D062D8687C
:1011D8001063186950631B7D00209363136A43F002
:1011E80001031362CCE9004130BD032005F0070577
:1011F8001EF0080F00FA05F0B1D10122A240B3E7B2
:1012080000E001406C52002283DE1B43006C344036
:101218005049504D30B511F0020408BF23460279F9
:1012280090F805E01CBF82F001031B07CD0744BFFF
:101238008EF0010543EA0563BEF1000F01F0010CD1
:1012480018BF4FF0010C90F806E080F805C041EA9D
:101258000E01817112B9221E18BF012202490271C2
:10126800C1F80C31002030BD0060344030B54FF07B
:10127800000E0346027911F002054FEA427008BFDA
:101288007046CC0793F805C005D5CCF10004F446A8
:1012980004F00074204383F805C012B1B5FA85F252
:1012A8005209054C1A71C4F80C019A79002022EAF7
:1012B80001029A7130BD00BF00603440064B002027
:1012C8001A690A80D3F820224A60D3F824228A6057
:1012D800C3F82822704700BF0060344030B5446925
:1012E80005468C4685B0ACB194E80F000DF1100EA0
:1012F8000EE90F009CE80F0084E80F002046EB6819
:1013080098476C6924B104AB13E90F0084E80F0017
:1013180005B030BD0C46F1E7072310B584B08DF851
:1013280000300369694604460393FFF7D7FF124A62
:101338001369D8071CD41369D90619D4A0680F49B2
:10134800837A047A9B02407A43EA042343EA4023DF
:1013580043F00103C2F8003401E00B781BB9D2F85E
:1013680010341B07F9D5012300200B7004B010BD01
:10137800082004B010BD00BF00603440B8510022FE
:10138800414B1A69D00774D42DE9F0471B69C3F3A0
:101398000015DB0672D491F8029091F801A019F0BB
:1013A80040000CBF012200220AF00F03374C082B23
:1013B8004FEAC21C8CBF4FF001084FF000088B8821
:1013C80004EBC21244D9DEB203F47F4E071E18BFE5
:1013D80001274FF080750B784FEA0A4A9B050AF4FB
:1013E8007C1A03F4400309F0030943EA0A0343EAB9
:1013F800896343EA086343EA4763334343EA0E03D6
:101408004CF8043055608C7804F02003002B14BF8E
:101418000125002504D014F00F0418BF0124230669
:1014280043EA855393608C78D1E9023114F0030FB5
:1014380018BF0B46D360A8B94FF40001124B144AE9
:10144800C3F8C015104B0020C3F80026BDE8F0878C
:101458008BB18F68012B3E7813D097F801E04FEAE3
:101468000E2EB3E7084B0A494FF40002C3F8C01523
:10147800E8E7082070479E461E46A7E70820BDE813
:10148800F087AE46A2E700BF006034408067344072
:10149800010080000D4AD2F81034590714D5D2F84B
:1014A80000340B4943F00203C2F8003401E00B7822
:1014B8001BB1D2F810349B07F9D50022034B0A70F0
:1014C800D3F81024C3F81424002070470060344077
:1014D800B8510022F0B5D94B85B0D3F850345B062B
:1014E80040F165820023D64ED64A337005460C4635
:1014F80081601370EFF31087012181F31088D24BBC
:101508009A6822F480629A609B68962002F0B2F88A
:1015180087F310882368D3E90001FFF705FE074623
:10152800002840F04182C94AD2F8003143F4807360
:10153800C2F80031D2F8103143F00103C2F810317B
:10154800D2F8143103F01F031F2BF9D140F6FC70B9
:10155800E37A013B43F44073C2F80031217BD2F8AF
:10156800083161F30703C2F8083194F82E3094F873
:101578002C105B0743EA0143218D94F830C00B43DC
:1015880094F82F1043EA817394F82D1043EACC7332
:10159800090501F470010B43C2F82031D4F804E0C6
:1015A800AA49DEF804301B0403F47F0CDEF800308F
:1015B80000EA8303DEF8080043EA0C0343EA006309
:1015C800C2F814336368DB68C3F30903C2F818333D
:1015D800E369C2F81032236AC2F81432636AC2F8A7
:1015E80018322369C2F8E0326369C2F8E432A369A9
:1015F800C2F8E832D2F8103143F48033C2F810311F
:10160800E27A5202A2F58072D1F8143103F403434E
:101618009342F9D1D1F810318C4A23F48033C1F8C0
:101628001031D1F8103123F00103C1F81031D2F88C
:10163800143113F01F03FAD1A16EDFF824C2C86871
:10164800C2F808020869C2F808034869C2F8280302
:101658008869C2F81804C869C2F8D805086AC2F8C7
:1016680018067B48C2F8D4C5C2F814C6C2F81404D8
:101678007848C2F804026B61236EEB60636E2B61DD
:1016880091F901000B7800284FEA0313DBB2C0F28E
:10169800928100F1604202F5614282F800336E4A9D
:1016A8006E4B42F8205000F5C65C53F82CE02EF43F
:1016B800803E43F82CE053F82C30BFF35F8F4FF097
:1016C800010C43099B0000F01F0003F1604303F580
:1016D80061430CFA00F0C3F88001186091F9030027
:1016E8008B7800284FEA0313DBB2C0F2888100F13F
:1016F800604C0CF5614C8CF80033584B42F8205084
:1017080000F5C65C53F82CE02EF4803E43F82CE03C
:1017180053F82C30BFF35F8F4FF0010C43099B0047
:1017280000F01F0003F1604303F561430CFA00F079
:10173800C3F88001186091F905000B7900284FEA79
:101748000313DBB2C0F2538100F1604C0CF5614C1D
:101758008CF80033414B42F8205000F5C65C53F832
:101768002CE02EF4803E43F82CE053F82C30BFF3E5
:101778005F8F4FF0010C43099B0000F01F0003F13D
:10178800604303F561430CFA00F0C3F88001186068
:1017980091F907008B7900284FEA0313DBB2C0F2F6
:1017A8001E8100F1604C0CF5614C8CF800332B4B1A
:1017B80042F8205000F5C65C53F82CE02EF4803E29
:1017C80043F82CE053F82C30BFF35F8F4FF0010C37
:1017D80043099B0000F01F0003F1604303F56143D8
:1017E8000CFA00F0C3F88001186091F909000B7A2F
:1017F80000284FEA0313DBB2C0F2E98000F1604C25
:101808000CF5614C8CF80033144B42F8205000F56D
:10181800C65C53F82CE02EF4803E43F82CE053F8D5
:101828002C30BFF35F8F4FF0010C43099B0000F091
:101838001F0003F1604303F5614313E000303440B7
:10184800B9510022B85100220030204000603440D5
:101858000B00D00007E5F757205200220060004037
:101868001001097D0CFA00F0C3F88001186091F9A5
:101878000B30897A002B4FEA0111C9B2C0F2A1805E
:1018880003F1604000F5614080F8001342F82350EE
:101898005F4A03F5C65152F8210020F4803042F81F
:1018A800210052F82120BFF35F8F012003F01F02AF
:1018B8005B099B0003F1604303F5614300FA02F200
:1018C800C3F880211A60534B534A2B60D2F8003179
:1018D800A96843F48073C2F800314B7B3070002B49
:1018E8000CBF03460323C2F80431497B02E0337876
:1018F800022B05D0D2F82033C3F380638B42F6D194
:10190800022094F8323094F833201B04920502F434
:10191800400203F47C13134394F83120DFF8F8C035
:1019280043EAC233307043F6FC71CCF82034E26BE2
:101938003A4B94F8380003EA024242EAC0320626DB
:10194800606BC0F30B000243CCF82824D4E91002E2
:10195800C0F30C0E324800EA024242EA0E02CCF80A
:101968002C24226D03EA024394F84C2043EAC23344
:10197800A26CC2F30B021343CCF83034A36D00EA17
:101988000340636DC3F30C031843CCF83404E36DD0
:10199800284601EA8301CCF804142B6969468DF8BE
:1019A80000600393FFF79AFC384605B0F0BD1E2788
:1019B800384605B0F0BD1B4A00F00F0C62441376A0
:1019C8006DE6184803F00F0C604401765EE7DFF817
:1019D80054C000F00F0EF4448CF8183014E7DFF808
:1019E80044C000F00F0EF4448CF81830DFE6DFF83E
:1019F80034C000F00F0EF4448CF81830AAE6DFF873
:101A080024C000F00F0EF4448CF8183075E600BFBF
:101A1800006000404449504D006034400000FF7FA2
:101A28000000FF1FFCEC00E0F8B55E4A0746D2F85C
:101A38001034590714D5D2F800345B4943F0020337
:101A4800C2F8003401E00B781BB1D2F810349B07C0
:101A5800F9D50022534B0A70D3F81024C3F8142484
:101A68000320504AB968D2F80431504C23F00103DE
:101A7800C2F80431497B207001E023782BB1D2F8F9
:101A88002033C3F3C0638B42F7D101260025D7F872
:101A980008C04749DCF86830257093F901205009DF
:101AA80002F01F02203006FA02F241F82020BFF3AC
:101AB8004F8FBFF36F8F3F4A93F9010042F82050D0
:101AC80093F90300440900F01F0006FA00F02034DF
:101AD80041F82400BFF34F8FBFF36F8F93F90300D2
:101AE80042F8205093F90500440900F01F0006FA57
:101AF80000F0203441F82400BFF34F8FBFF36F8FFD
:101B080093F9050042F8205093F90700440900F0C2
:101B18001F0006FA00F0203441F82400BFF34F8F6D
:101B2800BFF36F8F93F9070042F8205093F909002B
:101B3800440900F01F0006FA00F0203441F82400A0
:101B4800BFF34F8FBFF36F8F93F9090042F820500E
:101B580093F90B00440900F01F0006FA00F0203446
:101B680041F82400BFF34F8FBFF36F8F93F90B3009
:101B780042F82350DCF800301868FFF7C1FA3D60DE
:101B8800EFF3108486F310880B4B9A6842F4806256
:101B98009A609B689620314601F06CFD84F31088AA
:101BA8002846F8BD00603440B8510022B9510022DF
:101BB80000E100E0205200220030204010B5114B17
:101BC80084B0D3F8D045C3F8D445EFF30383103B72
:101BD8000D4A5BB203F5C65152F8210020F480305B
:101BE80042F8210052F8212000220848694650F89E
:101BF8002300019403698DF800200393FFF76EFB1F
:101C080004B010BD00603440006000402052002243
:101C180010B5114B84B0D3F81046C3F81446EFF34F
:101C28000383103B0D4A5BB203F5C65152F82100FD
:101C380020F4803042F8210052F82120012208487F
:101C4800694650F82300019403698DF80020039336
:101C5800FFF744FB04B010BD006034400060004052
:101C68002052002230B5344B85B0D3F81044C3F865
:101C78001444EFF30383103B304A5BB203F5C651BB
:101C880052F8210020F4803042F8210052F8212037
:101C98002B4A52F8235014F0080347D00122294B4D
:101CA8001A7002232A6928466946019403928DF81E
:101CB8000030FFF713FB14F4400F35D01E4AD2F85A
:101CC800003143F48073C2F80031D2F8103143F088
:101CD8000103C2F81031D2F8143103F01F031F2B8F
:101CE800F9D1D2F81031A96843F48033C2F8103121
:101CF800C97A114A4902A1F58071D2F8143103F466
:101D080003438B42F9D1D2F810310B4923F48033C5
:101D1800C2F81031D2F8103123F00103C2F81031A3
:101D2800D1F81431DB06FBD105B030BDA20744BFA2
:101D3800044A1370B5E700BF0060344000600040FB
:101D480020520022B851002270B5144C84B0D4F847
:101D58000052C4F80452EFF30383103B104A5BB2FD
:101D680003F5C65152F8210020F4803042F82100D2
:101D780052F8212003220B490B4E51F823006946E3
:101D880003690195CDE902638DF80020FFF7A6FAF3
:101D98000123C4F83C3204B070BD00BF0060344079
:101DA80000600040205200224062344010B5114BC0
:101DB80084B0D3F80043C3F80443EFF30383103B24
:101DC8000D4A5BB203F5C65152F8210020F4803069
:101DD80042F8210052F8212004220848694650F8A8
:101DE8002300019403698DF800200393FFF776FA26
:101DF80004B010BD00603440006000402052002252
:101E080010B5194B84B0D3F82043C3F82443EFF33B
:101E18000383103B154A5BB203F5C65152F8210003
:101E280020F4803042F8210052F82120104A11484D
:101E3800117850F82300012911D01378032B03D10E
:101E4800230144BF002313700523026969460194E6
:101E580003928DF80030FFF741FA04B010BD61011C
:101E6800EBD502231370EFE70060344000600040B8
:101E7800B9510022205200222DE9F84F0388DBB126
:101E88004FF0000A80464FF00109DFF8D4B0002473
:101E9800314D4FEACA07D8F8043035F8022BD91962
:101EA800898891420AD00134032CF4D1B8F8003063
:101EB8000AF1010A5345EAD8BDE8F88FDB5909FA57
:101EC80004F603F0B853B3F1807F244BF6B293F8CD
:101ED8004C2C12D0324230D104F120021BF81230BF
:101EE800DB09E0D01BF81230012123F08003C82061
:101EF8000BF8123001F0BEFBD5E7324210D004F1E6
:101F080020021BF81230DB09CDD11BF81230012159
:101F180043F08003C8200BF8123001F0ABFBC2E796
:101F2800012001F053FC0D4B012093F84C2C324357
:101F380083F84C2C01F01AFCE1E7012001F046FC83
:101F4800064B012093F84C2C22EA060283F84C2C0D
:101F580001F00CFCC0E700BF4051000200E0014066
:101F680000202040F8B50646FFF786FFEFF3108201
:101F7800012383F31088234F3B681BB94020224973
:101F88000B7508753B6801333B6082F31088338812
:101F980000211BB31D4D08E01B01134445F82340E5
:101FA800328801318BB29A4218D9736853F831409C
:101FB80003EBC1029288E0034FEA1223D2B2EBD5B9
:101FC80002EB031055F820E024F4803C2EF4803E08
:101FD80045F820E01B0145F820C0DEE7EFF310824A
:101FE800012383F310883B6813B13B68013B3B60D6
:101FF8003B681BB9802004490B75087582F310886B
:10200800F8BD00BF18520022000D404000084040B3
:1020180008B5034B03600846FFF7A4FF002008BD7E
:1020280054524F5030B5836B83B004460A466D4610
:10203800A3B193E8030085E80300E16B1A71196006
:102048001846636B9847A36B1BB195E8030083E8B8
:102058000300002384F82B3003B030BD2B46ECE797
:1020680030B5424B83B01B6A01690193019B03F0B1
:102078000F230193019A019D0B7C90F82C409CB989
:10208800C2F30322DBB2A2EB156293409B0804D192
:10209800082003B030BD013BFAD04A78C2F3C0141F
:1020A800D209F8D1CC710169002390F826408569DE
:1020B800026880F82B30C56180F82D3080F8274001
:1020C80080F82E3080F8283080F82F30036280F8AE
:1020D8003030546A227894F801E0012A14BF4FF096
:1020E800040C4FF0050C6279120142EA4E0294F892
:1020F80006E042EACE124CEA0202D2B2CA70016984
:102108000A7942F010020A7101690A7963F3C3027D
:102118000A7101690A7963F304120A710269E179A3
:10212800137961F3C71313710269537943F00103FB
:102138005371036893F90F30002B07DB012203F07A
:102148001F040B495B09A24041F82320BF22036901
:10215800DA7190F82C302BB1002380F82C30002055
:1021680003B030BD022203695A70F8E700E001406D
:1021780000E100E0B8B1034610B40C48DC688442C2
:102188000DD1D86938B993F82A4024B959601A7220
:102198005DF8044B704708205DF8044B7047072032
:1021A8005DF8044B70470120704700BF434949520E
:1021B80000B10AB90120704780F82A300029F9D007
:1021C80010B4124BC4689C421CD1436BB3B1037A60
:1021D800C0E90512012B0AD10021426880F8263097
:1021E800520042F0010280F8242080F825100123D3
:1021F80080F829305DF8044BFFF732BF01205DF805
:10220800044B704707205DF8044B70474349495217
:1022180068B380F82A3051B310B4164BC4689C4296
:1022280011D1436B5BB1037AC0E90512012B0ED0C3
:10223800002380F829305DF8044BFFF711BF012017
:102248005DF8044B704707205DF8044B704780F831
:10225800263000210023426880F82510520080F8BB
:10226800242080F829305DF8044BFFF7F9BE0120DF
:10227800704700BF4349495270B4002440220369A3
:102288001C7003691A70026913785B06FCD5C023B9
:102298001370036802695B6A804D1B794FF0000C6C
:1022A80043F0E0031374036802695B6AB324DB78C4
:1022B80043F0E0035374036802695B6A9B781B016F
:1022C80003F0700343F008039370036802695B6AC4
:1022D8001E78012E5E7814BF0423052343EA4603C3
:1022E800DBB2D37003685B68AB4214BF7722F72276
:1022F80003695A71036983F806C00369DC7191F9AF
:1023080011204B7B6245C0F2AA801B0102F1604498
:10231800DBB204F5614484F80033614C614B44F846
:10232800220002F5C65553F8256026F4803643F896
:10233800256053F82530BFF35F8F012553099B00B3
:1023480002F01F0203F1604303F5614305FA02F24C
:10235800C3F880211A6091F90F204B7B002AC0F244
:1023680095801B0102F16045DBB205F5614585F8F2
:1023780000334C4B44F8220002F5C65553F825604B
:1023880026F4803643F8256053F82530BFF35F8F75
:10239800012553099B0002F01F0203F1604303F576
:1023A800614305FA02F2C3F880211A6091F91020FE
:1023B8004B7B002A63DB1B0102F16045DBB205F5AC
:1023C800614585F80033374B44F8220002F5C655BD
:1023D80053F8256026F4803643F8256053F82530F5
:1023E800BFF35F8F012553099B0002F01F0203F121
:1023F800604303F5614305FA02F2C3F880211A60CD
:1024080091F90E204B7B002A31DB1B0102F1604160
:10241800DBB201F5614181F80033224B44F8220018
:1024280002F5C65153F8214024F4803443F8214082
:1024380053F82130BFF35F8F012153099B0002F04D
:102448001F0203F1604303F5614301FA02F2C3F886
:1024580080211A609F2203691A7070BC7047124C61
:1024680002F00F051B01DBB22C44237655E70E4919
:1024780002F00F051B01DBB229440B76CDE70B4DAB
:102488001B0102F00F06DBB2AB559CE7074D1B01A1
:1024980002F00F06DBB2AB556BE700BF40420F00FE
:1024A8002052002200600040FCEC00E014ED00E047
:1024B800F8B5002860D00C4600295DD04B6A002B87
:1024C8005AD091F90E30002B56DB91F90F30002BC2
:1024D80052DB91F91030002B4EDB91F91130002BB3
:1024E8004ADB294BC26805469A424BD001230A7839
:1024F8009340980743D0254B4968994204D101235A
:1025080003FA02F1890738D00026214B2C601344C6
:102518001B022B61A3686B60237B2B72E3696B63DF
:10252800236AC5E90E63EFF31087012181F3108850
:10253800184A23785068C3F1090301FA03F320EA23
:10254800030353605368962001F094F887F31088CA
:1025580021462846FFF790FE0B4A85F82960334646
:1025680085F82A60C5E9066685F82B606E612E62DB
:1025780085F82C60EA6000E001231846F8BD40F2B7
:102588007A53FAE70E23F8E74349495240420F00CD
:10259800E02540000030204010B582B0EFF30383FF
:1025A800103B5F4A5BB203F5C65352F8231021F47F
:1025B800803142F8231052F82330EFF30383594A4D
:1025C800103B5BB252F8234094F82D305BBBA369F3
:1025D800022B22D9E369012B0ED12269137943F02A
:1025E800100313712269137943F0080313712269E8
:1025F800137923F01003137123685B6ADB79002BCE
:102608003ED101222369DB7CDBB28DF807309DF8CF
:10261800073084F82D2002B010BD2269137943F0E9
:1026280040031371D6E7E369002BF4D02268526A9D
:10263800D279FAB9032B17D0022B26D0012B34D02C
:102648002269236AD17C6269D154D4E90732013204
:10265800013BC4E90732002BDDD121690A7963F314
:1026680086120A7102B010BD2269137943F0400343
:102678001371E5E705212046FFF7D4FCE369D9E7A4
:1026880005212046FFF7CEFCBBE72269137943F00A
:10269800100313712269137943F008031371226937
:1026A800137923F010031371CAE794F82A2072B340
:1026B80022681D4892F90F20510902F01F0203FAFF
:1026C80002F2203140F82120BFF34F8FBFF36F8F04
:1026D80004202169CA7942F08002CA7121690A7905
:1026E80042F010020A7121690A7922F008020A717F
:1026F80021690A7922F010020A7122695070216951
:102708004A7922F001024A7184F82C3098E70821AE
:102718002269537A03F0F7035372236959708FE7DC
:10272800006000402052002200E100E010B5EFF305
:102738000383103B434A5BB203F5C65352F8231098
:1027480021F4803142F8231052F82330EFF3038349
:102758003D4A103B5BB252F8234094F82730002BD7
:1027680040D194F82930002B3BD123685B6ADB7990
:102778002BB194F82B3013B9236A002B5CD1E36991
:102788002169002B41D1CB79C02223F08003CB7182
:10279800216901E0013A02D0CB79DB09FAD123683B
:1027A800284A93F9103003F5C65352F8231021F440
:1027B800803142F8231052F82330236893F91030FF
:1027C800002B09DB01215A09204803F01F0360325E
:1027D80001FA03F340F822302269D37943F0400329
:1027E800D37110BD94F82630032B1CD094F8242004
:1027F80023699A7494F8282094F827300132013B11
:1028080084F8282084F8273010BD236A6269D35CD5
:102818008B74D4E907320132013BC4E90732002B3B
:10282800DFD12169AFE794F82830022BDED194F884
:102838003030002BDAD110BD05212046FFF7F2FB1E
:102848009DE700BF006000402052002200E100E048
:1028580038B5EFF30383344A103B5BB252F8234098
:1028680023685B6ADB79002B4BD194F829301BB1C4
:1028780094F82730012B52D0E369E3B12169C023D2
:10288800CA7922F04002CA71216901E0013B02D0F5
:10289800CA795206FAD4EFF30383103B234A5BB29A
:1028A80003F5C65352F8231021F4803142F823105F
:1028B80052F8233038BD94F82A203AB30120226810
:1028C8001B4D92F90F20510902F01F02203100FA26
:1028D80002F245F82120BFF34F8FBFF36F8F4FF0FF
:1028E800040C2169CA7942F08002CA71226982F80F
:1028F80001C021694A7963F300024A7184F82C0007
:10290800BCE705212046FFF78DFBAEE708212269C9
:10291800537A03F0F703537223695970AEE794F8BA
:102928003030002BAAD0A7E72052002200600040D8
:1029380000E100E038B5EFF303834C4A103B5BB28B
:1029480052F823000269537A517ADC0601F0E0015B
:1029580051725FFA83FC03F003022CD5036959789E
:10296800490648D40024012580F82B50DC71016801
:10297800FFF782FCB32290F82630816980F828306E
:10298800036980F82C400162C46180F82A40294616
:10299800DA71FFF747FBEFF30383103B344A5BB26E
:1029A80003F5C65352F8231021F4803142F823105E
:1029B80052F8233038BD002A56D11CF0080F0ED02B
:1029C80090F82B30002B3ED1B32290F829100369E0
:1029D800C1F10301C9B2DA71FFF724FBDBE790F814
:1029E8002C200CF004032AB3002BD4D090F82B3001
:1029F800002B37D1E8E7002AB4D15A78C2F3801106
:102A08005206DAD5082280F82B105A70036801693B
:102A18005A6A94791378527943EAC41343EA021341
:102A280043F00203DBB2CB700269537943F0010330
:102A38005371B0E7002BAED003685B6ADB79002BDB
:102A4800A9D00421C8E70023B32190F8265084694F
:102A5800026980F82C3080F828500462C36180F83D
:102A68002A30D1710121B7E703697BE720520022A0
:102A78000060004010B5C3680446D3F88430DB68B2
:102A88009A681868936898470221084B1A6842F4B4
:102A980080721A601A6842F001021A60D3F8402462
:102AA80042F00102C3F84024217010BD00303440C8
:102AB800F0B502F11103144D1B02E858C60720D4E3
:102AC80012480468C4F30020E4051AD4002915BF8D
:102AD8004FF0030E4FF0010E0127002741F20C1CA6
:102AE80005EB022202F5895426686EF3010626607A
:102AF800EC18676042F80C10EA5842F00102EA50FC
:102B0800F0BD40F2EE30F0BD0020344000303440DB
:102B18002DE9F04F9246AC4C037B026834F8136001
:102B2800876885B0002A00F0EC8041F21C15A74A9E
:102B38004FEA0A2CD25CA64B120763445A5190F80C
:102B48000CE0B1F9003034F81EB0A24C8568A488B6
:102B58001A469C42039580F29C809E4A837BB2F978
:102B680000200468B1F902E00192002B40F0D880FF
:102B7800984D1A46B5F806900293F145C0F2B48014
:102B8800BEF1000FB0F80680C0F2D280A9EB0E09A2
:102B9800C1451FFA89F9B8BFC84641F20C1907FBAD
:102BA80006F68B4FF608674447F80940447B002C2B
:102BB800847B56EA06B6002C00F09C8041F2101483
:102BC8000026B0F810B03E51048A08FB04F40198BE
:102BD80041F228191044024641F2301841F2181502
:102BE80041F2241741F22C167B489B090BF1FF3B5D
:102BF800013B9BB200EA0B4B4BEA030B029B00EA3A
:102C080002421A43724BC4F30A04634443F805B002
:102C180043F8092043F808206E4AB2F902207244AA
:102C280000EA02402043D85198510A7A002A5FD01E
:102C3800012A41F234104B7A14BF4FF47F04002468
:102C480041F2381141F20306614A4FEA03436244F4
:102C580018BF43F080731350604B54501B68604A90
:102C6800023342F82A30012141F250100024584A18
:102C78000AF11103944402EB03225A4B0CF58955CF
:102C88002E6051604CF800401970597005B0BDE8CD
:102C9800F08F002BB0F804E05ADBE41A7445A4B2B4
:102CA800B8BFA6464B4BCEF30A05B3F9003004680B
:102CB80001930BFB0EF30295DB0890F80E80B1F937
:102CC80002E0B8F1000F03D0B0F8068008FB03F368
:102CD8009D06404D18BF23F03F03B5F8069018BF76
:102CE8004033F145BFF64CAF4FF0000EF04654E7C5
:102CF8000326B8E741F210103604C34644463E5056
:102D080065E70120324B0AF1110403EB0A2101F5B2
:102D1800895103EB042308605A6005B0BDE8F08FC1
:102D28000023B0F806801A46029308FB03F3CFE7A6
:102D3800F044B8F1000FD7DD039D1FFA88F80BFBAC
:102D480005F94FEAD9090EFB19444FF0000E24E7A4
:102D580003EB0E04002C7FF700AFBBF1070F20D860
:102D68004FF0010842461B4D5B42B5F900509542B1
:102D780001951EDAB3FBF8F818FB02F80022AEEB57
:102D8800080E1FFA8EF403FB0BFE0BFB04F3C4F3CF
:102D98000A0402940468DB0804EBEE0424F03F0400
:102DA8008BE740224FEADB08B2FBF8F2904612B2FA
:102DB800D9E7B3FBF8F208FB123292B2144452423C
:102DC800A4B212B2DFE700BF505100026051000206
:102DD80000203440C85100220000FF07BC510022E7
:102DE800C051002228000022F8B5002305460C46F1
:102DF8000370EFF31086012181F31088C34B9A68A2
:102E080022F010029A609B68962000F033FC86F34B
:102E18001088BF490B6843F480330B60D4F88420D2
:102E280094F83C005379A0F103001279B0FA80F0CD
:102E3800B2FA82F2400903F03F03520943EA003331
:102E480043EA022343F04003C1F8503494F8402089
:102E5800D4F884300AB14FF4BC72C1F8E4230022DC
:102E6800AB4EC6F8042493F9000093F90110471CEF
:102E780093F9022040F05C81481C40F07281531C99
:102E880040F087814FF0011C628E218DA14BA04E2E
:102E9800C1F30A0103EA02420A437260C6F808C095
:102EA800A18DB4F82AC00131CCF30A0C03EA014120
:102EB80041EA0C013161E18E974F013103EA014388
:102EC800A18E0022C1F30A010B43F36094F8453048
:102ED80094F846101B0203EB014394F84410204673
:102EE8000B447361A38D04F15C013B80E38E7B800E
:102EF800638DBB80A38EFB80FFF70AFE012204F1DD
:102F0800680104F11400FFF703FE94F83C10834BAA
:102F1800834A5B5C505C94F83D201B03012A43F014
:102F2800805208BF134694F83E2043F0807C012A63
:102F380008BF634694F85860032943F4007108BF3A
:102F48000B46D4F8842000042EB19179022900F0B0
:102F5800438140F480104FF400714FF002226C4E10
:102F6800BD60C6F8C4336F4BC6F8D403C6F8C8139F
:102F7800C6F8CC23C6F8D033E36F6B60D4F8803042
:102F8800C5E90234A18EE38ED6F850220B440133F2
:102F980063F30A02C6F85022EB68D3F88430DB6882
:102FA800D3E901121868126890470446B0B906229E
:102FB8000723C6F84024C6F84434EB6893F9772011
:102FC800002A74DA93F97820002A42DA93F97920F2
:102FD800002A15DA01232B702046F8BDEFF310857F
:102FE800012181F31088494B9A6842F010029A60D7
:102FF8009B68962000F03EFB85F310882046F8BDBC
:1030080093F8763002F160411B014748DBB201F5C5
:10301800614181F80033454B40F8225002F5C65112
:1030280053F8210020F4803043F8210053F8213070
:10303800BFF35F8F012153099B0002F01F0203F1C8
:10304800604303F5614301FA02F2C3F880211A6074
:10305800C0E793F8753002F160411B013248DBB2DA
:1030680001F5614181F80033304B40F8225002F5F8
:10307800C65153F8210020F4803043F8210053F85A
:103088002130BFF35F8F012153099B0002F01F021B
:1030980003F1604303F5614301FA02F2C3F88021AA
:1030A8001A60EB6893F97920002A93DBA8E793F874
:1030B800743002F160411B011B48DBB201F561412C
:1030C80081F80033194B40F8225002F5C65153F8E5
:1030D800210064F3104043F8210053F82130BFF376
:1030E8005F8F012153099B0002F01F0203F1604327
:1030F80003F5614301FA02F2C3F880211A60EB6814
:1031080093F97820002AFFF661AFA2E7003020404B
:10311800003034400000FF07C85100224C51000223
:103128004851000280808000205200220060004048
:1031380094F830302BB9D6F81C3443F01003C6F895
:103148001C342C4B53F82000036843F0020303603F
:10315800E38D2948C3F30A03C0F81834481C3FF428
:103168008EAE94F83A3033B92348D0F80C3443F093
:103178001003C0F80C341F4B1F4853F8213019684E
:103188001960238FC3F30A03C0F80834531C3FF4B3
:1031980079AE94F83F301BB90121174BC3F82814B6
:1031A8001449164B51F8221013480A6842F00702D6
:1031B8000A60A28D618D03EA0242C1F30A010A4343
:1031C800C0F82024E18EA28E03EA0143C2F30A026A
:1031D8001343C0F8103455E6517AD679090141EA0B
:1031E8000631967A127A314341EA022242F40012F9
:1031F8001043B0E668510002003034400000FF0779
:1032080030B51A4B83B01A68194901321A601B6825
:10321800896823B900240025164BC3E9004501221B
:10322800154B48681A705A7038B103228B68684683
:1032380001934B688DF800209847104AD2F848341B
:1032480043F00103C2F84834EFF30383103B0C4A00
:103258005BB203F5C65352F8231021F4803142F8CB
:10326800231052F8233003B030BD00BFBC510022F8
:10327800C8510022C05100222800002200303440EA
:10328800006000401E4A92F8263092F82420DBB2F3
:1032980002F00F02A2F1080103292BD8DFE801F0A0
:1032A80020160C021749184A51F82330A2FB0323B1
:1032B8001B09164A136070471249134A51F8233004
:1032C800A2FB0323114ADB08136070470D490E4A1D
:1032D80051F82330A2FB03230C4A9B081360704764
:1032E8000849094A51F82330A2FB0323074A5B081F
:1032F80013607047034951F82330D340D9E700BF22
:1033080000E00140A0500022ABAAAAAA6C520022F9
:103318004AF20353124AB2F8FAC3A2F8FA3392F8FF
:1033280075301FFA8CFC43F0400382F8753092F830
:103338007530DB09FBD04378094982F86D30037892
:1033480043F0400382F87530037882F8753091F8BD
:103358007530DB09FBD14CF4254CA1F8FAC3704752
:1033680000E00140000000004AF203500122F0B5DD
:103378008749884B83B0A1F8FA039A809C88A4B245
:10338800002CFBD101259FED7A4B9FED7B5B824A98
:1033980082499FED7B6B9FED7C7B116201F1B761E8
:1033A80001F5584151627E4991621D80A2EC045F8B
:1033B80082ED007FFFF766FF0A210922744B83F82C
:1033C800501A83F8A22083F8005C83F8364083F80B
:1033D800004483F8324093F83C201207FBD50022C2
:1033E80048F6037640F2237544F6017040F2214115
:1033F800674CA3F84860A3F84E5083F84A20188514
:10340800A3F84C1083F82A2094F83C309B06FBD58F
:103418000422012505265F4B624F1A77276284F83C
:10342800245084F82660FFF72DFF2946962000F0E7
:1034380021F9002384F824302762FFF723FF294667
:10344800962000F017F984F82660FFF71BFF4AF270
:103458000152554B1A80BFF35F8F1D72BFF35F8F08
:103468004FF42546022082211E8084F8305084F8CB
:10347800525084F8535084F83E0084F83E1094F873
:103488007430434A43F0400384F8743092F874303F
:10349800DB09FBD0002340213D4C82F86C3082F8D8
:1034A800741082F8743094F87430DB09FBD13F4B08
:1034B80001A81B88ADF80430FFF72AFF94F85530AF
:1034C800334A43F0400384F8553092F85530DB090D
:1034D800FBD0C823022082F8540082F8553092F8B5
:1034E80055302B4903F0BF0382F8553091F8553019
:1034F800DB09FBD191F85730254A43F0400381F8A6
:10350800573092F85730DB09FBD0C023022082F8ED
:10351800560082F8573092F857301D4903F0BF0320
:1035280082F8573091F85730DB09FBD191F85F30BA
:10353800174A43F0400381F85F3092F85F30DB09A7
:10354800FBD0C52082F85E3082F85F0092F85F30C9
:103558000F4903F0BF0382F85F3091F85F30DB0951
:10356800FBD14FF42543A1F8FA3303B0F0BD00BFF7
:10357800006CDC0200127A000080000000366E0148
:103588000000000000389C1C00E6DF0C00D012137D
:1035980000E0014000C10140A050002200B0710BC2
:1035A80000F36F063223123100200040F852000267
:1035B800012110B5284CC82084F8281000F05AF8CA
:1035C800002384F8243094F82430002BFBD194F89D
:1035D8002430214943F0020384F8243091F8243040
:1035E800C3F340009B07F9D41B4A81F8220092F8E4
:1035F800223003F0FF00002BF9D192F84030164931
:1036080060F3C71382F8403091F84030DB09FBD1F2
:1036180091F84200104A63F3C71081F8420092F80B
:103628004230DB09FBD192F844000B4963F3C71021
:1036380082F8440091F84430C3F3C014DB09F9D18F
:10364800012000F0C3F8054B012083F84C4CBDE87D
:10365800104000F08BB800BF0020204000E001407F
:10366800704700BF00000000A0F101000028FBD156
:10367800704700BF1E4B1F4A1B6800FB01F19342B5
:1036880013D302F1854202F5071203F5742302F6FB
:10369800834203F23F23A2FB03239B0CA3FB0131CC
:1036A8004FF0FF30E1B1FFF7DFBF4FF47A7210B48B
:1036B800114C4FF0FF30B4FBF3F3A1FB02C434B953
:1036C800BCFBF3F080B15DF8044BFFF7CDBFB1FB55
:1036D800F3F1A1FB0212002AF5D1084620B1F2E766
:1036E8001846002BDFD170475DF8044B704700BFC8
:1036F8006C52002200127A0000CA9A3B70B500246E
:103708000D4B0E4EB3F80021B3F82051ADB2154061
:1037180025FA04F3DB0704D556F82430E0B203B1E8
:1037280098470134102CF3D1034AA2F81051B2F88B
:1037380020311D42FBD170BD00C00040D85100228D
:1037480000220F2310B40748074C30F8021F02F577
:10375800C65C013209B144F82C10013BF5D15DF883
:10376800044B7047F650000200600040EFF31081F0
:10377800012383F31088124B33F8102092B22AB138
:1037880033F81020013A92B223F8102033F81030A1
:103798009BB293B910B40B4A0B4CB2F8FA3334F815
:1037A80010009BB243F4254323EA0003A2F8FA333E
:1037B80081F310885DF8044B704781F310887047D7
:1037C8005C52002200E00140FC52000230B4EFF3EA
:1037D8001081012383F310880E4A32F810309BB20F
:1037E8006BB90D4C0D4DB4F8FA3335F810C09BB2D7
:1037F80043EA0C0343F425439BB2A4F8FA3332F8A6
:10380800103001339BB222F8103081F3108830BC9D
:10381800704700BF5C52002200E00140FC520002E9
:1038280008B503460A4903330A6823F00303094825
:103838001344B3F5804F104401D80B6008BD00F065
:103848000DFC0C2203461A604FF0FF3008BD00BF84
:1038580068520022A0000022F8B506462E4C94F8C3
:10386800503C03F0FF05002BF9D18723A4F8243C32
:1038780084F8005C002E3CD101220023264981F8FF
:10388800022C81F8013C91F8503C002BFBD1BEB1D1
:103898004FF40C73204AA1F8483C92F8503CD907E1
:1038A800FBD4012347F2A8311C48C2F8440C82F823
:1038B800403CA2F8141C82F8163C82F8003CF8BD83
:1038C800012347F2A830154C134AC1F8444C81F83B
:1038D800403CA1F8140C81F8163C92F8003CDB0738
:1038E800FBD492F8503C002BF7D1012382F8103C0E
:1038F800F8BD01272846FFF769FF094B284683F8DA
:103908005370FFF733FF044A84F8207C92F8503C48
:103918001807FBD4B0E700BF0030004003250500BE
:1039280000E0014000BE704708B500F035F8FDF72B
:103938002DF9FEE7F8B5174F05463E68A6B17C6835
:1039480006EB460604EB860602E00C34B4420BD0C4
:10395800637AAB42F9D1D4E900020021121A0C347F
:1039680000F01AFBB442F3D1BE6896B1FC6804EBD0
:10397800061602E01034A6420BD0637BAB42F9D1A5
:10398800D4E90002A168121A103400F070FBA642B4
:10399800F3D1F8BD78510002704B714A70B55A6185
:1039A800BFF34F8FBFF36F8F1B6803F47002B2F53C
:1039B800801F00F0A78013F4600F00F08F80694A21
:1039C800136843F004031360BFF34F8FBFF36F8F87
:1039D8004FF47002644B614C0020C4F88820A36047
:1039E800FCF784FCFFF7C0FC0120FCF77FFC5F4B71
:1039F80083F30A885B4B1A68920704D5A268B2F170
:103A0800007F00F083800020FFF794FFFFF73AFC67
:103A1800FFF7CEFD0320FFF7D9FE00234FF00C0E71
:103A28001C464EF001E0524903F10C0221F82240F5
:103A380001330FF007C80320FFF798FE0320FFF7B4
:103A4800C5FE4C4B03205C609C60DC601C614A4CEA
:103A5800FFF78CFED4F8D8333BB3D4F8D833022020
:103A6800FCF744FC0120FFF765FFBFF34F8FBFF35E
:103A78006F8F0024394BC3F85042BFF34F8FBFF309
:103A88006F8F3E4B3E4D5B1BA3424FEAA30605DDFD
:103A980055F8043B01349847A642F9DCFFF750FE7D
:103AA800BDE870400020FFF7DBBD94F81031002B13
:103AB800D5D00120FFF78AFE94F8103103F0C00337
:103AC800802BF9D100232C4A84F8103192F8103158
:103AD8003F2BFBD80120FFF749FEC0E7214A1368B6
:103AE80043F004031360BFF34F8FBFF36F8F4FF0A2
:103AF800E022936843F480339360BFF34F8FBFF3A2
:103B08006F8F65E719077FF45AAF54E70121002644
:103B18001A695869C2F3C303093301FA03F300248D
:103B280000253246DB0843F007C800BFAFF300802A
:103B3800E2E802450FF005C0C0F3C303093301FAF8
:103B480003F34FF00052DB0843F007C0AFF30080E7
:103B5800E2E802450FF005C055E700BF00ED00E0C0
:103B680001020E0000E001E000000002A040002277
:103B7800000D40400040204000E001409853000202
:103B880094530002002310B50446836081811946CE
:103B98004366C28108228361C0E90033C0E9043367
:103BA8005C3000F0F9F90D4B246263620C4BA362A0
:103BB8000C4BE3620C4B23630C4B9C4206D003F185
:103BC8006802944202D0D0339C4205D104F15800D7
:103BD800BDE8104000F048BA10BD00BFF13D00023A
:103BE800133E00024B3E00026F3E0002705200225C
:103BF800024A0349034800F069B800BF2C000022BC
:103C08003D4900023C00002241680C4B994210B526
:103C1800044601D000F08EFEA168094B994202D0FB
:103C2800204600F087FEE168064B994204D0204602
:103C3800BDE8104000F07EBE10BD00BF70520022EB
:103C4800D85200224053002210B50B4B04210B4CD4
:103C58000B4A20461A600022FFF794FF04F168001F
:103C680001220921FFF78EFF04F1D0000222122160
:103C7800BDE81040FFF786BFA8530022705200220B
:103C8800F93B0002014800F0F0B900BFB15300222F
:103C9800014800F0EBB900BFB153002210B504464B
:103CA800FFF7F0FF236A1BB1BDE81040FFF7F0BF34
:103CB800044B2362044B1B68002BF5D1FFF7C4FFAC
:103CC800F2E700BF113C0002A85300222DE9F84397
:103CD8000746884614460026D4E90195B9F101093A
:103CE80005D52468002CF7D13046BDE8F883AB89A8
:103CF800012B07D9B5F90E30013303D029463846D0
:103D0800C04706436835E9E70FB407B5064904AB71
:103D1800086853F8042B8168019300F0DFFA03B0B8
:103D28005DF804EB04B0704738000022036A70B5F0
:103D380005460E4684680BB9FFF7B0FF636EDB07D4
:103D480005D4A389980502D4A06D00F08EF9A38943
:103D5800190702D52369002B35D12146284600F0E2
:103D6800C5F880B34FF0FF35636EDA0705D4A38931
:103D78009B0502D4A06D00F079F9284670BD002B90
:103D880004DAA2699A4217DC0A2915D023685A1C5A
:103D980022601970A36816F8011F013BA36000296F
:103DA800EDD1002B11DA22460A21284600F05FF8EF
:103DB8000130D7D00A25D7E72246284600F057F821
:103DC8000130E7D1CEE7013EE4E723685A1C2260C0
:103DD8000A221A70EEE70000024B01461868FFF746
:103DE800A5BF00BF3800002210B50C46B1F90E106F
:103DF80000F010F90028ABBF636DA3891B1823F4EA
:103E08008053ACBF6365A38110BD2DE9F0411F4607
:103E18008B8905460C46DB05164605D5022300228C
:103E2800B1F90E1000F0E4F8A3893246B4F90E1087
:103E3800284623F48053A3813B46BDE8F04100F0B7
:103E4800FBB810B50C46B1F90E1000F0D1F8431CC0
:103E5800A38915BF606523F4805343F48053A3817D
:103E680018BFA38110BDB1F90E1000F0B1B8F8B5B4
:103E78000E461446054618B1036A0BB9FFF70EFF44
:103E8800A369A360A3891A0701D5236943B9214609
:103E9800284600F02BF818B14FF0FF373846F8BD28
:103EA8002368F6B222693746981A6369834205DCAB
:103EB8002146284600F03EFD0028EDD1A368013BCD
:103EC800A36023685A1C22601E70431C62699A42D0
:103ED80004D0A389DB07E1D50A2EDFD12146284685
:103EE80000F028FD0028D9D0D6E7000038B5294BC6
:103EF80005460C46186818B1036A0BB9FFF7CEFEE1
:103F0800B4F90C30190722D4DA0607D409222A603A
:103F180043F040034FF0FF30A38133E0580712D538
:103F2800616B41B104F14403994202D0284600F084
:103F3800B3F800236363A38923F02403A381002338
:103F4800636023692360A38943F00803A38123697D
:103F58004BB9A38903F42073B3F5007F03D021463E
:103F6800284600F034FDB4F90C3013F001020AD0F1
:103F78000022A26062695242A261226942B913F02A
:103F88008000C5D138BD990758BF6269A260F4E7BF
:103F98000020F7E73800002202440346934200D18C
:103FA800704703F8011BF9E70139034610B532B130
:103FB80011F8014F013A03F8014B002CF7D11A44CC
:103FC8000021934200D110BD03F8011BF9E700005E
:103FD80038B50023054D044608462B60FCF77CFDE8
:103FE800431C02D12B6803B1236038BDAC530022B7
:103FF80038B50446064D0846114600222A601A467E
:10400800FCF774FD431C02D12B6803B1236038BD53
:10401800AC53002238B50446064D08461146002226
:104028002A601A46FCF764FD431C02D12B6803B1D1
:10403800236038BDAC53002238B50446064D084607
:10404800114600222A601A46FCF7A2F8431C02D146
:104058002B6803B1236038BDAC530022014B1868AC
:10406800704700BF380000227047704770470A4405
:10407800431E914200D1704710B511F8014B91428F
:1040880003F8014FF9D110BD034613F8012B002A9C
:10409800FBD1181A0138704738B50546002941D0B8
:1040A80051F8043C0C1F002BB8BFE41800F0E0F8EE
:1040B8001D4A136833B9636014602846BDE8384068
:1040C80000F0DCB8A34208D9206821188B4201BF50
:1040D80019685B6809182160EDE71A465B680BB13F
:1040E800A342FAD911685018A0420BD120680144A4
:1040F800501811608342E0D118685B680844536027
:104108001060DAE702D90C232B60D6E72068211863
:104118008B4202BF19685B680918636008BF216099
:104128005460CAE738BD00BFB853002270B50F4EBF
:104138000C460546316811B900F0A8FC30602146EC
:10414800284600F0A3FC431C03D14FF0FF3420465F
:1041580070BDC41C24F00304A042F8D0211A2846DC
:1041680000F094FC0130F2D1EFE700BFB453002215
:104178002DE9F843CD1C064625F0030508350C2D1E
:1041880038BF0C25002D01DBA94204D90C2333606C
:104198000020BDE8F883DFF8D48000F069F8D8F88B
:1041A80000301C4644BB29463046FFF7BFFF431C7E
:1041B800044658D1D8F800402746002F43D1002C98
:1041C8004BD023683946304604EB030900F05EFC07
:1041D800814542D1216830466D1A2946FFF7A6FF6E
:1041E80001303AD023682B442360D8F800305A684D
:1041F80062BBC8F800700FE02268521B20D40B2A5B
:1042080017D96119A342256018BF5960636808BFB0
:10421800C8F8001062514B60304600F02FF804F1E6
:104228000B00231D20F00700C21A1CBF1B1AA35045
:10423800AFE76268A3420CBFC8F800205A60EBE7FA
:1042480023466468AEE73C467F68B6E71A465B6873
:10425800A342FBD100235360DEE70C2330463360D2
:1042680000F00CF894E70560D6E700BFB8530022C9
:104278000148FFF7FABE00BFB05300220148FFF71C
:10428800F5BE00BFB05300229368013B002B10B469
:10429800936008DA9469A34201DB0A2903D15DF827
:1042A800044BFFF7E4BD1368581C106008461970EA
:1042B8005DF8044B7047F8B506460F461446D51806
:1042C800AC4201D1002007E03A4614F8011B304601
:1042D800FFF7DAFF431CF3D1F8BD00002DE9F04FDA
:1042E8000D469DB014469846064618B1036A0BB9A8
:1042F800FFF7D4FC6B6ED90705D4AB899A0502D4B5
:10430800A86DFFF7B2FEAB891B0701D52B699BB9D6
:1043180029463046FFF7EAFD70B16B6EDC0704D51D
:104328004FF0FF301DB0BDE8F08FAB899805F7D48A
:10433800A86DFFF79BFEF3E70023CDF80C804FF044
:104348000109DFF8B481099320238DF8293030233F
:104358008DF82A3023469A4613F8012B0AB1252AEC
:10436800F9D1BAEB040B0BD05B46224629463046FE
:10437800FFF7A1FF013000F0A780099A5A4409927B
:104388009AF80030002B00F09F8000234FF0FF3296
:104398000AF1010A049307938DF853301A93CDE973
:1043A800052354460522544814F8011B00F07EFBEF
:1043B800049AD8B9D10644BF20238DF85330130787
:1043C80044BF2B238DF853309AF800302A2B15D090
:1043D800079A544600204FF00A0C214611F8013B79
:1043E800303B092B4BD9B0B1079214E0A0EB08037E
:1043F800A24609FA03F313430493D2E7039B191D5A
:104408001B68002B0391BBBF5B4242F0020207937B
:104418000793B8BF049223782E2B0AD163782A2BEE
:1044280032D1039B02341A1D1B6843EAE3730392DB
:104438000593DFF8D4A003222178504600F036FB1C
:1044480038B1A0EB0A004022049B01348240134398
:10445800049314F8011B062228488DF8281000F050
:1044680025FB00283FD0264B1BBB039B073323F0BB
:10447800070308330393099B3B4409936AE70CFB42
:1044880002320C460120A8E7002301344FF00A0C41
:1044980019460593204610F8012B303A092A03D90A
:1044A800002BC6D00591C4E70CFB0121044601236B
:1044B800F0E703AB2A4604A930460093114BAFF34B
:1044C80000800746781CD6D16B6ED90705D4AB8916
:1044D8009A0502D4A86DFFF7C9FDAB895B063FF5C5
:1044E8001FAF09981EE703AB2A4604A9304600937C
:1044F800044B00F07DF8E4E7065300021053000275
:1045080000000000BF4200020C5300022DE9F047F2
:10451800164698468A6807460B690C46DDF82090CF
:104528009342B8BF1346336091F843200AB1013370
:1045380033602368990642BF3368023333602568C5
:1045480015F0060506D104F1190AE36832689B1ACA
:10455800AB422BDC94F843302268003B18BF0123A0
:10456800920630D404F1430241463846C847013028
:1045780023D023681A3454F80A2C03F00603042BBA
:104588000ABF54F80E5C002533684FF0000608BFD8
:10459800ED1A54F8123C08BF25EAE5759342C4BFEA
:1045A8009B1AED18B5421AD1002008E001235246A3
:1045B80041463846C847013003D14FF0FF30BDE8C7
:1045C800F0870135C1E7E1185A1C30200233224434
:1045D80081F8430094F8451082F84310C2E701239C
:1045E800224641463846C8470130E6D00136D9E769
:1045F8002DE9FF470F7E914680460C46782F9A4654
:104608000C9E01F1430207D8622F0AD8002F00F050
:10461800D180582F00F0B88004F1420684F8427027
:104628003AE0A7F16303152BF6D801A151F823F05E
:1046380091460002A54600022146000221460002DA
:104648002146000221460002A5460002214600023A
:10465800214600022146000221460002A34700022B
:10466800CF4600025D4700022146000221460002B3
:10467800C547000221460002CF460002214600023B
:10468800214600026547000233681A1D1B68326024
:1046980004F1420684F8423001239CE03368206824
:1046A800191D3160060601D51D6803E04506FBD5D6
:1046B800B3F90050002D03DA2D236D4284F84330FE
:1046C80058480A2311E021683368080653F8045B48
:1046D80002D4490648BFADB26F2F3360514814BFAA
:1046E8000A230823002184F843106668002EA66078
:1046F80005DB21682E4321F0040121604BD01646CA
:10470800B5FBF3F103FB1157C75D06F8017D2F4692
:104718000D46BB42F4D9082B0BD12368DF0708D517
:10472800236961689942DEBF302306F8013C06F12F
:10473800FF36921B22614B4603AA21464046CDF81C
:1047480000A0FFF7E3FE01304AD14FF0FF3004B07C
:10475800BDE8F087236843F02003236078273248B8
:10476800236884F845701F06316851F8045B02D449
:104778005F0648BFADB23160D90744BF43F020039C
:1047880023601DB11023ADE72648E9E7236823F02D
:1047980020032360F6E71646BDE733682568181D31
:1047A800616930602E061B6801D5196002E0680651
:1047B800FBD51980002316462361BCE73368002126
:1047C8001A1D32601E686268304600F06FF908B141
:1047D800801B606063682361002384F84330AAE784
:1047E8002369324649464046D0470130ADD0236858
:1047F8009B0713D4E068039B9842B8BF1846A6E706
:104808000123324649464046D04701309DD0013504
:10481800E36803995B1AAB42F2DCEBE7002504F18D
:104828001906F5E71753000228530002B1F90C20C6
:104838002DE9F041160705460C4654D44B68002B69
:1048480002DC0B6C002B48DDE66A002E45D0002305
:1048580012F480522F68216A2B6030D0626DA389D0
:10486800590705D56368D21A636B0BB1236CD21A4A
:104878000023E66A216A2846B047431CA38906D16B
:1048880029681D292BD82A4ACA40D60727D50022CD
:10489800D90462602269226004D5421C01D12B68C8
:1048A80003B96065616B2F60B9B104F144039942A3
:1048B80002D02846FFF7F0FB002363630DE00123D5
:1048C8002846B0470246501CC9D12B68002BC6D0D9
:1048D8001D2B01D0162B1DD12F60002021E043F0A5
:1048E80040031BB21AE00F69002FF6D093070E6839
:1048F8000F600CBF4B690023A6EB07088B60B8F16B
:10490800000FEADD43463A46216A2846A66AB047C0
:10491800002808DCB4F90C3043F040034FF0FF30B6
:10492800A381BDE8F0810744A8EB0008E7E700BFD2
:104938000100402038B50B6905460C4613B900251F
:10494800284638BD18B1036A0BB9FFF7A7F9B4F9BF
:104958000C30002BF3D0626ED00704D4990502D432
:10496800A06DFFF782FB28462146FFF75FFF636EC5
:104978000546DA07E4D4A3899B05E1D4A06DFFF7C7
:1049880075FBDDE770B50C46B1F90E1096B015460B
:1049980000291E460CDAA389002113F0800F14BFEA
:1049A80040234FF48063002031602B6016B070BD47
:1049B8006A4600F049F80028EDDB019901F47041DE
:1049C800A1F50053594259414FF48063EBE78B89B5
:1049D800F7B59D0706460C4607D504F14703236043
:1049E80023610123636103B0F0BD01AB6A46FFF7A1
:1049F800C9FF009F054630463946FFF7B9FB48B95D
:104A0800B4F90C309A05EED423F0030343F0020303
:104A1800A381E2E7A389206043F08003A381019B7F
:104A2800C4E904075BB1B4F90E10304600F01EF873
:104A380028B1A38923F0030343F00103A381A389C9
:104A48001D43A581CFE7000038B50023064D044675
:104A5800084611462B60FCF741F8431C02D12B682D
:104A680003B1236038BD00BFAC53002238B5002322
:104A7800054D044608462B60FCF732F8431C02D16A
:104A88002B6803B1236038BDAC53002238B500232E
:104A9800054D044608462B60FEF7C2FE431C02D1B2
:104AA8002B6803B1236038BDAC530022C9B203465A
:104AB800024410B59342184601D1002003E004785F
:104AC80001338C42F6D110BD5B4C54383931325D1C
:104AD80020436F6E6669677572616E646F20444427
:104AE800532070617261202564204D487A2E20562B
:104AF800616C3A203078253036580D0A00000000E5
:104B0800436F6E6669677572616E646F20C3A175C5
:104B180064696F204932532E2E2E0D00C3817564AF
:104B2800696F2049325320686162696C69746164F5
:104B38006F2E0D0048444D49206F757470757420B0
:104B4800456E61626C652E0D0000000048444D49B9
:104B5800206F75747075742044697361626C652E7A
:104B68000D0000004C54383931325F4765745F4896
:104B780050443A20686967680D0000004C54383981
:104B880031325F4765745F4850443A206C6F770D47
:104B9800000000004C54383931325F4765745F4873
:104BA80050443A206572726F206E61206C6569749A
:104BB800757261204932430D000000004C543839A9
:104BC80031324220636869702049443A20307825A0
:104BD8003032582C203078253032580D0A00000029
:104BE8004C54383931324220636869702049443A5C
:104BF800206572726F206E61206C656974757261D0
:104C0800204932430D00000057696474683A202532
:104C1800690D0A004865696768743A2025690D0AB4
:104C280000000000487374726964653A2025690DB4
:104C38000A0000002A2A256920474C434443205390
:104C48007461727420415049206661696C65642002
:104C58002A2A200D0A0000002A2A256920474C43E9
:104C680044204275666665724368616E67652041D7
:104C78005049206661696C6564202A2A200D0A0063
:104C88002A2A256920474C43444320647269766583
:104C98007220696E697469616C697A6174696F6E92
:104CA800204641494C4544202A2A200D0A0000008C
:104CB8002A2A2569204D49504920445349206472C5
:104CC8006976657220696E697469616C697A617464
:104CD800696F6E204641494C4544202A2A200D0A16
:104CE80000000000FF00000000FF00FF0000FF00C0
:104CF80000000000FFFFFFFF00FFFFFFFFFF00FFB6
:104D0800FF00FF0000000068200358022003000095
:104D1800010000000000000000000000D002400276
:104D2800D00200000000000000000000A0042003E2
:104D3800D80080000000780258021B000400000020
:104D48000000000101000000000000000000000059
:104D5800000000000000000000000000000000004B
:104D6800000000000000000000000000000000003B
:104D7800000000000000000001FFFF00DFDF00006E
:104D8800CD0A000200000000944D0002010002005C
:104D98000006000303030300A44D0002285100226B
:104DA800B04D000220510002504E0002404E000259
:104DB8000101010261010000000000000000000084
:104DC80000000000000000000000000000000000DB
:104DD800010000000000000001013E000400000086
:104DE8000100000058020000170000000100000048
:104DF80080000000010000002003000058000000AF
:104E08002800000009010000FD0800020000000061
:104E18001C4E00020C010C020C050C060C040C03C1
:104E280007E5F75707001F00000000300000C0002A
:104E38001001007D1001087D9F0400000B00000098
:104E48001A00000028000000405100225C4E0002B9
:104E58001851000202007C00040000006C4E0002A1
:104E6800010000003F190100083B2300051700005E
:104E78001B01130713080B000700000000000000C7
:104E8800A086010049000000010C0708090A00007B
:104E980000000000000000004104000200000000C3
:104EA800AC4E0002000105101000000004020000D2
:104EB8000C0B0C0C0C0D0C0E000000000000000088
:104EC800550B000200000000D44E00020001000053
:104ED800240000220F00FFFF000000010100000075
:104EE80040000000F44E0002000000000008011C11
:104EF800000100000008011C03010000000C011C57
:104F080007010000000C010B0C010000000C010B54
:104F18000D010000000C010B0E010000000C010B3C
:104F28000F01000000000000000200000000011F47
:104F38000602000000000100080200000000010055
:104F480009020000000001000A0200000000010040
:104F58000B020000000001000C020000000001002C
:104F68000D020000000C010B00030000000C010BF7
:104F780001030000000C010B02030000000C010BF0
:104F880003030000000C010B04030000000C010BDC
:104F980005030000000C010B06030000000C010BC8
:104FA80007030000000C010B08030000000C010BB4
:104FB80009030000000C010B0A030000000C010BA0
:104FC8000B030000000C010B0C0300000000011390
:104FD80007040000040000000804000000040107A2
:104FE80009040000000401070A040000040400008A
:104FF8000C040000000001040E040000000001047D
:105008000F040000000C010B01060000000C010B4E
:1050180002060000000C010B03060000000C010B47
:1050280004060000000C010B05060000000C010B33
:1050380006060000000C010B07060000000C010B1F
:1050480009060000000C010B0A060000000C010B09
:105058000B060000000C010B0C060000000C010BF5
:105068000D060000000C010B0E060000000C010BE1
:105078000F06000004000000060700000008011CDD
:10508800030800000008011C0808000000000113C4
:105098000E080000000001130F080000000C010BAF
:1050A80005090000000C010B0609000000000000C3
:1050B80007090000000C010B08090000000C010B97
:1050C80009090000000C010B000A000004000000A0
:1050D800010A0000000C010B080A00000008010B7F
:1050E800090A0000000C010B0A0A00000000000079
:1050F800CD01D301D401D501D601D701D8015C0077
:105108005D005E005F004001410142014301000073
:105118003111000209110002DD140002311A0002E7
:10512800211300029D1400021D12000275120002D4
:1051380089130002C51200020204030404040000DB
:1051480000010200000102032000200010001000EE
:10515800100008000400010004010002030506070E
:105168000C343440143434401C3434402434344037
:1051780008000000985200020F000000A851000229
:105188000300000090510002000000680000006861
:105198000000008000000080A0000022A000002283
:1051A8000000006800000068000000900001090D80
:1051B8000000006800000068000000270001020DE0
:1051C80000000068000000687C0000020001010D7A
:1051D8000000008000000080000000900001090825
:1051E8000000008000000080000000270001020885
:1051F80000000080000000807C000002000101081F
:1052080000000000000000000000009001010905F6
:105218000000000000000000000000270100020557
:1052280000000000000000007C00000201000105F1
:105238000000002000000020000000900101090487
:1052480000000020000000200000002701000204E8
:1052580000000020000000207C0000020100010482
:105268000000002200000022000000900001090355
:1052780000000022000000220000002700000203B6
:1052880000000022880000227C00000200000103C8
:1052980000000068000000680001000D00983A68EE
:1052A80000983A680001000D0000008000000080AE
:1052B80000010008000000800000008000010008D4
:1052C80000000000000000000100000500000020B0
:1052D800000000200100000488000022A000002235
:1052E80000000003D0500022BC530022000000033D
:1052F8000601000001000200080010002000232D14
:10530800302B2000686C4C006566674546470030C6
:105318003132333435363738394142434445460013
:105328003031323334353637383961626364656613
:10533800000000004275696C742077697468205217
:10534800656E6573617320416476616E6365642080
:10535800466C657869626C6520536F667477617214
:1053680065205061636B6167652076657273696F4C
:105378006E20362E312E3000362E312E30000000B1
:04538800000001061A
:04538C00F8B500BFB1
:04539000F8B500BFAD
:04539400750100029D
:045398004D010002C1
:08539C00F4ECFF7F01000000AA
:020000040300F7
:04A10000FFFFFFFF5F
:04A10400FFFFFFFF5B
:04A20000FFFFFFFD60
:04A2800000000000DA
:04000005020039318B
:00000001FF
